:20000000A03A0120D507010039FB021039FB021039FB021039FB021039FB021039FB021064
:1C00200039FB021039FB021039FB021039FB021039FB021039FB021011FB021002
:20003C009C380020743400203438002054350020D0220020D0360020A438002060370020C8
:20005C0044380020E8350020841E000024210000BB21000040210000322100005438002088
:20007C00B4200020B8200020BC200020C0200020C4200020C8200020CC200020D020002054
:20009C00D420002064380020E83400200C380020143600209E1900002C190000101A000044
:2000BC00821A0000F41A0000642000007421000068210000E5380020803800205C23002024
:2000DC007C3700208C22002033340020B23800208835002020380020241D0020D820002004
:2000FC0024180000EE140000EC1C00000C1C0020142100002C310020DC380020D838002040
:20011C00DC200020E0200020D03800200C1E0000CC370020AC32002034340020401C000030
:20013C0080230020B8380020C8380020E421000034220000502000204C2D00208024002068
:20015C00014A031049480310D5490310154703109DBD00005D49031081470310A1460310F9
:20017C009548031045450310254A031021440310ED47031099490310E148031021490310E7
:20019C005553031089520310CD520310655003108D4E031045C2000039D7000039F700006B
:2001BC001968000059510310ED5003108DB60000CD4B03102952031011530310A955031011
:2001DC007555031069530310DD5503103555031049BE000021540310855C03100D5603107C
:2001FC004D5D0310A9640310B55B03106D570310E5610310095E0310C55803108560031011
:20021C0071610310B16203109963031055630310FD600310B15E0310C9B20000D55A03108E
:20023C00D559031009630310D963031019640310555F0310C56403104D6203107164031056
:20025C008D64031055640310E16403102975031079720310A16B0310F57203109D740310EE
:20027C00797403102D74031061730310FD7303105574031015750310D96C0310FD740310EF
:20029C00558E0000E17403103D75031079700310F9640310CD6803102D710310C174031085
:2002BC00F56E0310B973031029670310056E0310C56F0310E1710310A1770310797D031064
:2002DC003D7E031049750310157E0310357D031099760310997C0310257B031071780310FF
:2002FC00B57D0310ED7C0310857E03102D790310B97A0310917B0310B1790310ED7B031035
:20031C00E97D0310617E0310357A0310D57E0310457C0310A57E0310BD7E0310F5A8000039
:20033C00D9800310E97E031049830310898403108D8103107D820310E58403102B8403104B
:20035C00C5830310918703106188031045880310F1850310B18803107D880310C9880310CE
:20037C001D870310A186031001850310E188031099880310F9870310CDB50000359C03102E
:20039C00819D0310E99A0310359B0310C19B0310419A0310F18803101D8C0310618F0310EF
:2003BC00F1940310919E0310C19E03103D9E0310699E0310259E0310619D03100D9E031028
:2003DC00819B0310ED93031055990310C9970310D9980310BD950310959C0310C19D03102D
:2003FC00A59E03107D9E0310C991031089D50000699C0310DD9D031095900310FD9B03100A
:20041C00CD990310158E0310019D0310E19C0310219D0310419D0310BD9C0310F59D03107D
:20043C00A19D031055980310E1920310999A0310B99E0310559E031061290100E140010066
:20045C0039A20310F93C010069A1031075A20310C59E0310B9A10310F9A1031015A10310BC
:20047C009DA20310194A010097EC00002DBA0000D92101001D490100F548000031A90310B4
:20049C00ADA20310AD990000B9A8031099A50310C5A1000039A803106DA9031089A603100E
:2004BC006DAC031099B1031009AF031059B1031001B103109DA9031071E0000081D10000EE
:2004DC0033190100BDC60000696B0000290C010091C30000C5710000E19E000089A40000F0
:2004FC0059AC0000F1B9031075BA031081BB031031260100A9E500006D010100A5AF0000E4
:20051C00B92301003DFD0000752D0100A1FD0000F92501007D370100D53F01000D0101006F
:20053C0015180100312A01005D0F010035C900002943010089ED0000791901005943010097
:20055C00152B00009D6E0000C56900001D7C0000E9C60310E56000007596000025450100F0
:20057C00B9270100C7400100CD0101003BB10000FB40010011450100214C0100B104010004
:20059C0089DA0000A9D6000001000000000000000000000000000000FFFFFFFF44240020D8
:2005BC000400000000000000000000001400000030FD021018000000142200006406000010
:2005DC001C2400200400000000000000000000002400000018FD0210180000006144010092
:2005FC00080000005407000018060000C1C8021001BB021091EB0210DDE5021081E0021020
:20061C00B9E5021071E502103100000001000000010000006422000000000000FFFFFFFFF1
:20063C003C24002004000000000000000000000028000000B8FC0210240000001E000000EA
:20065C001800000000000000CC080000780600009BEC021025E2021005EB021025DE02104B
:20067C00FDE10210E1E402102F00000034000000240028000000000030230020FFFFFFFF79
:20069C0064240020040000000000000000000000380000006CFC02102800000001000000B7
:2006BC00100000000000000000000000F7F1021000001A001000000003000000A421000022
:2006DC00E71500000800000036000000F02200201421002009001D0023140100E41F0020BC
:2006FC000100000000001200FFFFFFFF542400200400000000000000000000001000000023
:20071C0048FD0210180000000000000000001300FFFFFFFF6C24002004000000000000008B
:20073C000000000054000000A0FB02103C000000000001002D000000A8050000471001002D
:20075C00300000004B4B0100540700007C07000059D20210D9DB021059EC0210CDD60210C9
:20077C0085DE02104DE5021029E5021030000000000016000000000000000000FF7F0000C0
:20079C00901E0020FFFFFFFF4C24002004000000000000000000000058000000DCFB02109E
:2007BC003400000039FB021001002F00060000000000000020000000010000001BF8021027
:2007DC0028000000CC080000F407000093EC02106DEB02104DEC021029E00210BDE40210F2
:2007FC0099E402102D000000000000002424002004000000000000000000000010000000A5
:20081C0040FC02102C000000000000000000030000000F003C0000000000000000000000F4
:20083C002FF902101000000008000000BC200000FFFFFFFF5C2400200400000000000000CE
:20085C00000000001C000000DCFC021024000000E00700000C240020040000000000000017
:20087C00000000000C00000000FD021018000000D721010000000000000000000800000028
:20089C0001000000040000000000000000001400000000003C1D0000000019000000180099
:2008BC0024000000554C01000040000000020000A80500000000100055F002100C000000F4
:2008DC00D59C000000000000042400200400000000000000000000002000000010FC021001
:2008FC0030000000541D000001000000374B01003309010000000000000017000002000061
:20091C0031000000000023000000150001000000640700003424002004000000000000006A
:20093C00000000002000000094FC0210240000006C1D0000D0230020200000005C1F00007E
:20095C00032C00000000000000000000000000000000000002080000000000000000000042
:20097C000001010008001772C4230020030800000000000000000000000165090000000047
:20099C0000000000012C000000000000000000000001001E000000000000000003080000E4
:2009BC000000000000000000000164030000000000000000030800000000000000000000A8
:2009DC000001930300000000000000000308000000000000000000000001640300000000F1
:2009FC0000000000053800000000000000000000000000000000000000000000000000009E
:200A1C00053800000000000000000000000000000000000000000000000000000538000040
:200A3C00000000000000000000000000000000000000000000000000022C0000000000006C
:200A5C0000000000000000000000000000000000000000000000000003380000000000003F
:200A7C00000000008201081014000084000000004E905500000000000338000000000000B9
:200A9C00000000008201081014000084000000004E90550000000000033800000000000099
:200ABC000000000000000000140000000000000000000000000000000738000000000000C7
:200ADC0000000000000121030F008000520798E008003F011C2200206403008005000000E3
:200AFC00073800000000000000000000000141060F000002590798E008003F01F4210020ED
:200B1C0093039909050000000738000000000000000000000001A1000F3333004C0220C8F0
:200B3C0008003F01A02100206403008005000000043800000000000000000000000188F9C6
:200B5C004E90550000000000FF0710580000FC0100000000000000000000000000000000DB
:200B7C00043800000000000000000000000188F94E90550000000000FF0710580000FC01FD
:200B9C000000000000000000000000000000000004380000000000000000000000000000FD
:200BBC000000000000000000FF00000000000000000000000000000000000000000000001A
:200BDC000128000000000000000000000001003000000000000000000003FF186400000021
:200BFC0000000000000000007856341200000000BAAB00000000000100000000A43000206B
:200C1C00B0340020EC23002094380020F01D0020AC38002098170000C81100001830002078
:200C3C0030320020F0330020B823002079240020DC21000009080310010103108909031040
:200C5C005D0303100105031089060310D1080310210A0310810B0310810A0310110B0310B4
:200C7C00510B0310D10A031029100310610D0310890E0310050E0310B50F0310D10B031098
:200C9C00511003103D10031065100310FD0E0310ED0F0310B50C0310650F03101110031020
:200CBC006910031009120310F5120310AD110310291103105D120310B1120310192503107D
:200CDC00552703108D240310F12603100528031089260310CD23031059280310ED1F0310C3
:200CFC00251303100D210310911D0310B12703100D2203109925031019260310A91B031064
:200D1C00CF2803109528031039290310052903106D29031099160310C91E03107D19031019
:200D3C000D230310C92C03101D2C0310292D0310B52B0310F52C03109D290310CD2A03107D
:200D5C00452B0310472D0310112D0310412D0310752C031029340310C138031071360310B1
:200D7C00A12E0310813303106D380310A93A03103D3A0310C534031011380310753A03104C
:200D9C004D2D031009320310E12F031015390310F939031019310310B1370310F5350310FE
:200DBC00B13903105D350310C5320310E5360310693903104D370310253D0310413D0310EB
:200DDC00F53C0310C93A0310A53C03109D3D0310593D031019430310CD3D0310A143031090
:200DFC004D400310093F031061420310CD400310C9430310E5430310C93F03101144031029
:200E1C00FD4303101F440310A942031019420310E1420310C14103107543031049430310CC
:200E3C00494103101B440310AD0B0310C14B0100C54B0100D14B01009B4A0100D54B01007A
:200E5C00CD4B0100C94B0100DD4B0100D94B0100BC3800206D400021D740002199400021E6
:200E7C00F940002105410021114100212941002141410021074C657900F009F8617969404F
:200E9C00490703D50121044A8903116070BD70B50249084780030021081104402D5900002E
:200EBC0000F019F8E1B26C290BD0042801D0062807D10E490978C90703D12178090700D416
:200EDC0002200B490A780C21114202D0094980220A6003B0F0BDF0B583B00749084704482B
:200EFC00017840229143017004480047C80000213301002100E200E041160300231B030088
:200F1C0000F082F800480047577F000000F082F8004800471B880000094B1A780824A24353
:200F3C00002800D022431A70004A1047838E000003490878000701D402480047704700000C
:200F5C00800300215F7E0000044A282090470448012141600348044A416010474F42000056
:200F7C0000500440006004408542000070B51F4D2878C4B21E4880472878032834D1032C83
:200F9C0032D01C488068400DC2071A48014660318030002A03D01F240C57458802E01E2453
:200FBC000C570588002C1FD01348154A416900794143481011494969401810494039497F53
:200FDC00904740054015694288420DDBA8420BDC0C4B996988B20246090C62430904521250
:200FFC00801880B20843986170BD0000E402002179410000280000218003002100030021C8
:20101C00CB81000040400440806B0C490007000F48717047094A0A4918235079CB56497E4C
:20103C00C018814201DD084602E00F2800DD0F20D189090909010143D1817047E0020021E2
:20105C00880000215D40002189400021954000213B410021074C657900F009F861796940EB
:20107C00490703D50121044A8903116070BD70B50249084780030021081104402D5900004C
:20109C0000F00AF800480047577F000000F00AF8004800471B880000806B0C490007000F63
:2010BC0048717047094A0A4918235079CB56497EC018814201DD084602E00F2800DD0F2026
:2010DC00D189090909010143D1817047E0020021880000210122274B02212548184710B53C
:2010FC00254880472548406A00280DD124490A200856002809DA401C07D008462038406A00
:20111C002049884200D1804710BDFFF7E3FF10BD00211E4B1C4A0846184701201C49400211
:20113C0008601C48FB220178114001701248EC38004710B51849884711492039012807D002
:20115C00020404D50020088514484862012010BD4A6A094BEC3B9A4201D1114A05E0074986
:20117C004A6A104B9A42F2D10F4A4A6210BD0000060800009F060000A192020008010021C1
:20119C005401002163920200E7400021B5B4020080E100E080030021F7960200DD40002161
:2011BC00234100216995020019410021000800000000000000000804FA000000FFFFFF0008
:2011DC000C1100000000000000001D1100000000000000002E010F000000FA0000002F0140
:2011FC0000000000FA000000300100000000FF000000310100000000FF0000003201000045
:20121C0000000300000033010000000003000000340100000000010000003502000000000B
:20123C00FFFF0000370200000000FF000000390200000000FF0000003B0200000000FFFFE7
:20125C0000003D0100000000FF0000003E0100000000010000003F010000000001000000B4
:20127C004001000000000700000041200000000000000000610200000000FFFF00006308DD
:20129C0000000000000000006B080000000000000000730800000000000000007B080000C1
:2012BC00000000000000830205000000580200008501000000001000000086020000000010
:2012DC0032000000880200000000320000008A02000000000A0000000097B92EE5725CCB72
:2012FC005DCAE473B82F0196BA2D03945FC8E671E7705EC90295BB2CE3745ACD0691BF28E2
:20131C00BE2907905BCCE27559CEE077BC2B05920493BD2AE17658CF51C6E87FB4230D9AC1
:20133C000C9BB522E97E50C7EB7C52C50E99B720B6210F9853C4EA7DB2250B9C57C0EE79A1
:20135C00EF7856C10A9DB324089FB126ED7A54C355C2EC7BB027099EA2351B8C47D0FE6981
:20137C00FF6846D11A8DA334188FA136FD6A44D345D2FC6BA037198E41D6F86FA4331D8A61
:20139C001C8BA532F96E40D7FB6C42D51E89A730A6311F8843D4FA6DF3644ADD1681AF3841
:2013BC00AE3917804BDCF26549DEF067AC3B15821483AD3AF16648DF1087A93EF5624CDB21
:2013DC004DDAF463A83F1186AA3D13844FD8F661F7604ED91285AB3C00CD2A031000452B83
:2013FC000310021F44031000FD430310011F44031000FD43031003D10B031000FD430310E4
:20141C00045110031000FD43031001472D031001412D031001FD43031001FD43031001FD35
:20143C0043031000752C031001FD43031001FD43031001FD43031001FD43031002472D03BD
:20145C001002412D031002FD43031000752C031002FD43031002FD43031002FD0E03100208
:20147C00FD430310046510031000FD43031003472D031003412D0310031F440310031F4431
:20149C00031003FD43031003D10B031003FD43031000752C031003FD43031003FD4303101F
:2014BC0004472D031004412D0310041F440310041F440310041F440310046510031004FD05
:2014DC0043031004FD430310043D10031000752C03100001363601010001020100010301B3
:2014FC00000104010606080400000C0100340D01000F10040101140100FF160800002002EA
:20151C000000220100FF23010001240100FE250100082602000028010001290100012A026E
:20153C0000002C01000F2E0200003001000131010008320200FF34010007350102FF3601DA
:20155C0000003701000138010001390100FF3A01000F3C0200FF3E01010F3F01000140016B
:20157C00041F41010001420100FF43010080440800004E0100084F01000F5001000151013D
:20159C0000FF5201000A5301008954010001580400005C04000060040000640400006804AC
:2015BC0000006C0400007004000074040000780400007C040000800100FF81010001820131
:2015DC0000018301010284010001FF000000000000000000000000000000000000000000E2
:2015FC000000000000000000000000000000000000000000000000000000000000000000CF
:20161C000000000000000000000000000000000000000000000000000000000000000000AE
:20163C0000000000000000000000000000000000000000000000000000000000000000008E
:20165C0000000000000000000000000000000000000000000000000000000000000000006E
:20167C0000000000000000000000000000000000000000000000000000000000000000004E
:20169C0000000000000000000000000000000000000000000000000000000000000000002E
:2016BC000000000000000000000000000000000084240020E7380020E838002085240020FE
:2016DC00B33800208624002087240020254A01006146000081420100BD31010091310100C1
:2016FC007D0C0100D10C010025E50000CD1A0100DD340100E52C01000D0F0100EB4A0100FD
:20171C00394501004139010095290100113701003931010065310100C9290100152D010073
:20173C0081E1000005B2000047330100BD0E0100AD000100014A01000D4A01002BF10000BF
:20175C002D3F010083F5000099C80000CD17010015DB0000FD290100314A0100A13B0100D2
:20177C00E1420100294C0100F5230100817D0000413B0100B9DC00009D1E0100FFFFFFFFD2
:20179C00FFFFFFFF9A10000000000000000000000000000000000000000000000000000087
:2017BC0000000000000000000000FAFA140000000000000000000001000001010000000002
:2017DC000000000000000000000000000000000000000000000000000000000000000000ED
:2017FC00000000000000000000000000000000000000000000000000000000000000007855
:20181C000008020030000A00360001000600000000000000000F000000000000000000001C
:20183C000000000000000300FFFF00000403FFFF0000FFFF0F00E8030005401F0310000116
:20185C0001000000FF3F0F0008000E0000000000000000000300010F0000090100000000EB
:20187C0000000000000000000000000000000000000000000000000000000000000000004C
:20189C000000000000000000AD00000100000000000000000000000000000000000000007E
:2018BC0000000000000000000000000000000000000000000000000000000000000000000C
:2018DC000000000000000000000000000000000000000000000000000000000000000000EC
:2018FC000000000000000000000000000000000000000000000000000000000000000000CC
:20191C000000000000000000000000000000000001017101010101011101010131010101EB
:20193C00010180010001100161013B001400630173017201620143010001130106013D01F9
:20195C00350004011201000100010001000104010401330133013C014401320136000001BC
:20197C000001650100013500810100010501820183010001660100010001080109010A0196
:20199C000B01030071003001600011007000310220035004800007001000610000001400E3
:2019BC006300730072006200430000001300060000000000040012000000000000000000EF
:2019DC0004000400370037003C0244000000000000000000650000003500810000000500D3
:2019FC00000083000000660000000000080009000A000B000302710230016002110270022C
:201A1C0001020202020280020002100261023A00410063027302720262024302000213021D
:201A3C0038000002000204021202000200020002000204020402370037003C02440200022C
:201A5C00390000020002650200023502810200020502820283020002660200020002080280
:201A7C0009020A020B02010371030103010301030103010322030203010300031003000353
:201A9C00000300030003000300030003420300032403060300030003040312032503230330
:201ABC002503230304030403000300030003440300030003230300036503210035038103EA
:201ADC0000030503000300030003000325032303080309030A030B0303047104020460046D
:201AFC00110470040204020401040204000410046104000414046304730472046204430490
:201B1C00000413040604000400040404120400040004000400045104640000040004000489
:201B3C0044040004000400040004650400043504810464000504000483040004660400049C
:201B5C000004080409040A040B0400009340010079440100E5D80000DD1C0100013A0100AA
:201B7C00D1C9000025EC0000BD380100213A0100F52E0100232F010099210100012B0100ED
:201B9C0079410100E5020100E1100100ADFB000041030100DBFD0210A137010011DC0210E5
:201BBC0071D900007149010041320100A1460100B54601000D400100E55E0000658900002D
:201BDC00000000000000000000000000A9410100D94501005DEF00009D450100694B0100FB
:201BFC00634B0100ED45010000000000174B01007DF2000061F60000BD3E0100C5CF00002E
:201C1C002D470100D1A90000C1580000D9DE0000013B010000000000CD060100693E010030
:201C3C007DC500000000020000000200020002000000320004000100000002000000000005
:201C5C00000000000500010000000700060001000000030007000800000000000F00010032
:201C7C000100FF001000080000000000180008000000000022000200000000008F0000005D
:201C9C008F0001008F0002008F000300900000018F00010190000002900000038F0001049A
:201CBC008F0000058F0008048F0000048A000006510000007F0001003F0004003F00020061
:201CDC003F0001007F0002008F0002048F00010238C40D00C80000008100000032000F016C
:201CFC0000C50D00900100004000000096000501952B0D00C80000002200000032000F028F
:201D1C000000000000000000000000000000000000000000000000000000000000000000A7
:201D3C007B7374617469632D696E7374616E63652D6E616D657D00C07B656D7074792D69B7
:201D5C006E7374616E63652D6E616D657D00C0467B756E6B6E6F776E2D696E7374616E6382
:201D7C00652D6E616D657D00690501001FF9021045F8021059F802106DF8021081F802104A
:201D9C0095F802102DE90000052E01009D200100252801000D380100F1460100613C010016
:201DBC0049270100E94801004944010085F50000E944010085470100F74801007547010064
:201DDC00A17F0500454B01003F4B01000000000000000000000000000000000000000000A6
:201DFC000000000000000000A348010095480100C003000080070000000F0000001E000086
:201E1C00003C00000078000000F0000000E0010000C003000080070000000F0000001E00AA
:201E3C0000003C00000078000000F0000000F0001404C0A0FE0000001404C0A00A0480A0D6
:201E5C00090480A008400080FE0000000D0480800C40008006048080070480800F200080D2
:201E7C000E200080FE0000000000000002000000020000000A000000020000000200010087
:201E9C00000000000000000000000000000000000000000000000000000000000E00000018
:201EBC000F4B0100574B0100C52B0100DD3D0100850A0100F93D01002DE70000011A010005
:201EDC00594901001D8D0000A1E4000075FC00001F4B0100B97A0000E18B00006F4B0100DE
:201EFC00C511010035A70000754B010065D4000054070000241F000035480100454801006F
:201F1C006548010055480100952E010055380100C53201003200000000B0004014000000D9
:201F3C0034000000FF000000000000000D0CFFFFB036002020000000010300000000000011
:201F5C0015F9021001E602102DDA021045E7021041D10210C9D30210A5DF02102DE402106A
:201F7C0061EA0210DD20010000000000FFFFFFFFFFFFFFFF000000000000000001010101EE
:201F9C0000C201000300000000000000CC080000BC1F0000414C01002DDC000045F00000E4
:201FBC00352E010031380100993201002E000000FFFFFFFF00000000000000000000000041
:201FDC003A013A01000000000000000000000000A81F00001424002004000000000000004C
:201FFC0000000000200000007C200000180000000C1F00002C240020040000000000000052
:20201C000000000014000000482000001C0000001404C0A0FE0000001404C0A00A0480A0F0
:20203C00090480A008400080FE0000001C00000000000000000000005C20000000000000F9
:20205C00080000000000000000000500BD00B700B100BC001C0030003800080038010200AF
:20207C001800000000000000000000008C2000000800000000000000000000003DB100008A
:20209C00AD4001000101010000000000000000000600000002000000860000008200000023
:2020BC000100000000000000000000000000010000000100001610160E18151C0212032433
:2020DC0018580302100258000200000000000000FFFFFFFF00000000020000000000000005
:2020FC00FFFFFFFF000000000000000020000000400000006000000088B22400881300000F
:20211C00100000000000000100A6AAACA4A9A9A399B19ABCB6A8313118191A22311C1E20A5
:20213C0031313431313117191A21241B1D1F3131333100000301020200000700010000009E
:20215C00FF00000000000000000100000C0E020B040B0A070800110F000120181A18182C45
:20217C0034041E00BC1E0000D438002004220000FF0001000000000000000000E41E0000BF
:20219C00982B0020341F000025DD021031C8021075DF02100100010001020300010001025C
:2021BC00040201010101090200BE040A00BE02080102000302000103FFFFFFFFFFFFFFFF56
:2021DC0035452515020305040004081000040810B4370020E6150000FF00000000000000E4
:2021FC00DD080100F94B010000E0040000800000000000000800000000000000000000002C
:20221C0010040810181C10000810182004040810181C000001020304000105090000000075
:20223C001000000001000000874B0100454C0100870201008D4B01008D130100A1EB00007C
:0C225C003D4C01000A000000914101000F
:202268002DE9F04FD04F804607F108000068416EADF1440D03A88847B84C2268106C056825
:202288002DB9D2F84C0580472268106C0568B44801216E6867680170307800F0200AF868A5
:2022A800037843B9D2F858240846002190472068006C05686E682D8911F04EFC0027022092
:2022C8000E9033880F97180955D320684030816F0F78002F4FD0016809684B6A4F6E996AA2
:2022E800B1F1FF3F35D0A7B34A1C9A620268126891620068006890F82B0007F8010920684A
:20230800006C006890F82A0007F801092068006C006890F8290007F801092068006C0068B4
:2023280090F8280038702768386C0268106A00950190801B281A80B20290506A916AD7F8DB
:20234800C07492F88C2033461530B847071C01D111E0DB272068D0F8B800416C19B9E420DB
:202368000AF0CEFB04E00F98C74A1070E4208847002F40F086812068D0F828240BA9642069
:2023880090472068D0F8B800007838B16068006900780EF0D1FF012840F07081BB4F23689F
:2023A800A81C1FFA80F9A7F80090D3F828240DF12D01E92090479DF82D000F9F012805D1FE
:2023C8004D46C5F3022040F0180005E02D1DADB2C5F3022040F0080006F8010DC5F340118B
:2023E800284606F8015D09F0ABF90890A84DA5F8F6709DF82C00C5F8106100280CBFA5480F
:20240800A548BB46CDF818B005F17C067780C5F8540105F1F409C9F8180095F88900A5F839
:202428009A7020F00F0040F0030085F8890012F0D5FB0C909948B8F1010F0D9021D0B8F1F3
:20244800040F1ED0B8F1000F18D0B8F1050F12D0B8F1030F0CD12168D1F8D40090F853009B
:20246800D1F83C148847C07B022818BF4E460AE005F1F40607E08A480D9004E005F19806F4
:2024880001E005F17C06BAF1000F6BD0A5F8467105F5A270C5F8F80095F8503195F8010134
:2024A800DFF8009220F00F0040F0020085F8010123F00F0040F0070085F8500199F8001013
:2024C800AA23B3FBF1F223684FF47A78B8FBF1F0801A042211FB02F109B24143C5F84C112A
:2024E800D3F8D400D3F8181490F853008847DA46042808BF4FF0010A4846BAF1000F0ED110
:202508000078236898FBF0F18AB203F140018B6F1B78002B0CBF983202F5F4720FE00078BA
:20252800236898FBF0F1CC318AB203F140018B6F1B78002B0CBF02F5907202F5CC6292B241
:202548005043514A86238000137000F57A60C5F86401554B0E9320220F920FE01401002060
:202568009323002095F80101012161F3030085F8010158462168C5F8F80040314B4A0A4BBF
:202588005069DB68904605F134029A420ED0B5F85C20B0F840309A4208D1B5F85A20C38F0C
:2025A8009A421BD002E0C046901D0020404A2E650123137005F14C02578095F8593023F08F
:2025C8000F0343F0020385F85930C5F854B095F8583067F3030385F858301646C6F808B096
:2025E800327B67F3030232738A6F1778BFB109680F68A7B1397D352911D030488068C06B6A
:202608008047B060307B20F00F0040F00200307301278DF81070B0680390D8F81400274910
:2026280089680F9A0F6D0E998DE806000D9B314603AAB8471F490028088013D50C9854F0A7
:20264800FBFC21684031886F007828B10868006810B1007D352811D0012041F288310DF0DB
:2026680037FB0EE0144991F90000144FF435401C08700C98FD6054F0DFFC02E01A200AF0B5
:202688003FFA11B0BDE8F08FE638002044160020401500204E9055550E7A5555B53D00003B
:2026A800DD860000CC210020020043006C1F002094230020482300209C230020901D0020A4
:2026C8002DE9F04FADF11C0D80B10169C54CC64DA06121B92868D0F84C058047A06941681A
:2026E8002F68A1608068D7F80811086012F076FA04460CF0F7FD10B1D0A012F021FC11F005
:20270800EFFE684612F032F8042069468DF80000002012F033F8B54FB968D1F804110860DA
:20272800B868D0F80401006810B9CCA012F008FC12F002FC12F0FCFB12F0F6FB12F0F0FB28
:2027480012F0EAFB12F0E4FB06F078FE204654F073FC11F0F5FB10F0D7FFB868D0F8D400A1
:2027680090F843000AF030FEB868D0F8582400210120904710F09AFE0025BD48FE68057044
:20278800F068007807F1080628B9B868D0F858242846014690470BF0EFFCDFF8D8A2B64A53
:2027A80007212B460AF1140010F044FECA4C4FF48042CA4920784A6089460870BBE0E0688D
:2027C800410907D32E208DF8140005A812F09CFBCC480068410807D325208DF8140005A876
:2027E80012F092FBC7480068810807D326208DF8140005A812F088FBC2480068C10807D342
:2028080027208DF8140005A812F07EFBBD480068010907D329208DF8140005A812F074FB57
:20282800B8480068C10909D38DF815502D208DF8140005A812F068FBB2480068010A09D357
:202848008DF8155030208DF8140005A812F05CFBAC480068410A09D38DF8155035208DF850
:20286800140005A812F050FBA6480068C10A09D38DF8155023208DF8140005A812F044FB91
:20288800A0480068810A09D38DF8155036208DF8140005A812F038FB9A480068010B09D38C
:2028A8008DF8155037208DF8140005A812F02CFB94480068410B09D38DF8155038208DF82D
:2028C800140005A812F020FB8E480068C00B10D3D9F80C0068B18046D8F810B0404612F052
:2028E8000FFB40460FF0F6F95FEA0B08F4D1C9F80C503068D0F898000068B8B112F06EF9E2
:202908003168D1F898100A6804920D6054F094FB31680498D1F898104860049812F0F4FA83
:202928003068D0F89800001D12F0E6FA2846E06012F0DEFA207872490B784BB1DFF8C8811E
:20294800A8F1180818F8181F884203D05B1EF9D1284608E0D8F80C004FF0FF3112F0C4FA2E
:20296800D8F814000068E06012F0BAFA2078E1680DF0E6F812F032F99AF801108AF80150AE
:202988008A080CD2C9081AD354F056FBB868D0F8582428460146904707F1080611E054F041
:2029A8004BFBF868C068007838B9B868D0F8582429460120904707F1080612F00FF954F0B9
:2029C8003BFBE068800908D330683C300068001D10F08CFA0028049050D1E068000CFFF4DA
:2029E800EEAE13E0901D0020140100200C010020D02909D18178E170C17861700179A1705F
:202A080083686361C168A16111F006F820780DF065FC002804903FF4D2AE0178D029E7DA3D
:202A28003168D1F898104860049812F06DFA3068D0F89800001D12F05FFAE7E752616E6414
:202A48006F6D5F736565644175746F6D617469632829206661696C656400C0464372797071
:202A6800746F206F70656E206661696C656400C0E2380020CC210020314C010012F0AEF8E7
:202A88003168CA6B117B491E117354F0D5FA0498017833688DF81410D3F8981048600498C6
:202AA8004378EBB1DC2B0DD0DD2B0BD0E42B09D0F32B07D0DE2B05D0DF2B03D0E82B18BF6E
:202AC800DB2B0FD112F008FA9DF81400162809D104A812F011FA05E02001002070230020B1
:202AE80012F012FA9DF814103068162900F13C003FF46CAFC06D001D12F0FEF964E7C04621
:202B0800F01600202C010020141700202DE9F04FC04C0646A068D0F80001807AADF1340D98
:202B2800C0000AF0DBFE0028089000F0E58112F055F80B90A068D0F888240AA98220904752
:202B4800BDF8280004F1080500283FD14FF000084FF6FF74ADF8288047460BE0D2F8942311
:202B68008DF82470D42004A99047BDF82800401CADF828002A6802F580721068BDF82810D6
:202B88008088884205DCD2F8942382200AA990471CE0ADF81440BDF82800ADF81640FF21E0
:202BA8000822ADF8100006A80CF038F82A68384602F580721168897A8142CFDD089BC1000C
:202BC800401C5F50C0B2C9188C80F3E70020CB4CADF828002068D0F800012A6800894FF6F4
:202BE800FF79A04602F591620CE0BDF82800D8F800702268401CADF82800D7F8000102F502
:202C080091620089BDF82810884240F365812068D0F80001C07A4FF0000A0127554612E0D7
:202C28002068D0F800012268C0886D1CADB202F591624AE020682268D0F800016D1CADB2AA
:202C480002F59162C07AA84208DC002FCDD1BAF1000F32D1F07F0028C7D02EE08DF80250DD
:202C6800BDF82800ADF8000012686946D02090470028DFD19DF80C0001280AD19DF80B00BD
:202C880038B92068D0F81C150DF1030088470028ABD1337D9DF80C00002B0CBF05220922AD
:202CA80057468342C6D10DF1030006F1150110F0A3FE0028BED04FF0010A2068D0F8000113
:202CC8002268C088002502F59162A84264DDADF80250BDF82800ADF8000012686946D1204D
:202CE800904700289CD1BDF80400814598D0ADF810002068D0F8882404A9D4209047002828
:202D080040F01B8106A8311D082210F075FE002886D030887788ADF81400BAF1000FADF8F9
:202D2800167023D0307B27688DF82400D7F80001877A002001E0401CC0B2874207DC0B9840
:202D480054F07AF90898002800F0FE80FAE0089901EBC0018A88914503D0BDF828309342B9
:202D6800E9D130690860BDF828708F802068D0F8942404A9D4209047BAF1000F0CD0B07FEF
:202D88009DF80610884207D08DF806002068D0F894246946D1209047226802F580721068EA
:202DA800C088A8427FF421AF2068D0F8000180884FF00008C346AEE02068D0F81C1506AD2B
:202DC8002846884738B9311D2846082210F014FE002800F09580308877882346ADF81400BF
:202DE800357BADF8167018682268D0F800018DF8245090F80AE0B832584601E0401CC0B27B
:202E0800864509DC0B9854F017F90898002873D070E0C0460C0100200899C50001EB050C12
:202E2800BCF80430994503D0BDF828709F42E5D1301DBAF1000F0CBF5B463369CCF800300A
:202E4800BDF8283049198B80456806AF7D6003683B6011680F783FB10F6D2FB1BDF810108A
:202E68003A4690472268B8325D4603E022686D1CADB2B832906CC188A94228DDADF8025071
:202E8800BDF82800ADF80000D2F8D0236946D1209047E82803D0BDF804008145E6D1BDF8A6
:202EA80010008DF807B0B77FADF8040023688DF80670D3F8942404A9D42090472068D0F80E
:202EC80094246946D12090472068D0F800018088A84215DD404508D00B9854F0ADF80898FD
:202EE80008B10EF0F7FE00202FE00B9854F0A4F8089808B10EF0EEFE1A2026E014010020B4
:202F08002768226808F101001FFA80F8D7F8000102F5807280884045DCDDD2F88823ADF8EC
:202F28001080D42004A9904700283FF445AF0B9854F082F8089838B104E00B9854F07CF809
:202F4800089808B10EF0C6FE19200DB0BDE8F08F2DE9F04F4FF0FF084146ADF14C0D0E917C
:202F68000F914FF0000910914E46089609960A96AD4C0B9604F1300B0C96E0680D96494669
:202F880011919EE0E068710306AA042311F090FD119903AA304610F001FF02AA30460121D7
:202FA80010F0FCFE3046022101AA10F0F7FE069800F0FF0028709DF81900069F6870C7F3CC
:202FC8000140E8709DF80E30AB702878FF2834D0BDF80C70FE2830D04FF6FF70B8422AD197
:202FE80007A80FF04FF9E06871034FF088524FF4005311F05DFDB8484FF4005750F8041D0A
:203008003F1FBFB2B1F1FF3F07F1885201D1032FF4D810684FF0010A514600F0FF03FF2BE2
:2030280018BF8A46491C000A0529F6DB1060079811F092F85744EF8001E01020E8809DF8C1
:203048000A00BDF8087028719DF806302F81BDF804206B7129786A81E068FF292AD0FE294B
:2030680022D07E291AD07C2912D078290BD0702904D00D99491CC9B20D9120E00C99491C27
:20308800C9B20C911BE00B99491CC9B20B9116E00A990F96491CC9B20A9110E009990E9606
:2030A800491CC9B209910AE00899B046491CC9B2089104E009F1010710965FFA87F9761C9D
:2030C800F6B2E578B54200F31F810D9F002F38D10898022835DA0C98022832DA09980228F7
:2030E8002FDA4D452BD00C98C0B90898A0B90B980A99084325D010F075F9854219DCB9F1C2
:20310800000F14D094F83200FE210FF03FFDE5780120DDF8408015E0012013E0089860B9C7
:20312800B9F1000F07D110F05DF9854201DC062008E0032006E00220EBE7022002E0119844
:2031480000E004200028A07000F0C880401E49D0401E00F0A980401E06D0401E00F097806C
:20316800801E00F093800AE110F03CF905460C2084F83C5015FB00B0817E84F83D10C07E41
:2031880084F83E0007F092F8E2782D1895FBF2F050432D1AE8B284F83200401C90FBF2F1EF
:2031A8005143401A84F831007C200FF0B1F9FF2810D17E200FF0ACF9FF280BD1FF200FF0BC
:2031C800A7F9FF2806D178200FF0A2F9FF2808BF94F8310084F833000C2110FB01B0808BC9
:2031E800E0868BE00F9F08F1010090FBF5F184F832806943FF2FA0EB0100C1B284F8311019
:2032080014D10E98FF2804D10C200E9111FB00B004E00146880000EBC100584484F83310DE
:20322800808BE086ABE0C046AC1C00203A46D0B2910084F8330001EBC2015944898B1729BA
:20324800E18640F29C80C91F01AA89B209F0D2FA9DF80F00C0083BD3119F0097BDF8122076
:20326800E18E94F833000323891AC91F01AA89B204F08EFF002840F08280BDF810100029A8
:203288007DD09DF814000DF001FF78E0FEE7119EB54223DD304608F075F86178E578761CAD
:2032A800F6B201436170F3E708F1010084F8328090FBF5F16943401A84F831005FFA88F052
:2032C80008F060F86070FE215FFA88F00FF05EFC119854F001FD52E00020001111986D1EFB
:2032E80084F831000C2184F8325010FB01B184F83300898BE1867E210FF048FC94F8320067
:20330800FE210FF043FC3AE00C2116FB01B506AA0423710311F0CCFB1199304603AA10F05A
:203328003DFD304602AA012110F038FD3046022101AA10F033FD0699163501F0FF0201F091
:20334800FF00FF2A09D0FE2A07D07E2A05D07C2A03D0782A18BF702A0AD1119F47B9C1F31D
:203368008542032A04D19622B2EB116F3FF422AE304608F007F8002860703FF403AE13B098
:20338800BDE8F08FC7482DE9F84F0068DFF8B4A20C469046B830C169DFF8ACC291F8832055
:2033A800BF499946012A00F08A80CA48BD4F04687868C068022301224FF0E046002503EAA8
:2033C800080B027016EA09060D7008BFBBF1000F32D14FF4803015EA090700EA080008BF94
:2033E80000281AD129464FF4003011EA090700EA080008BF00280CD14FF4800011EA09013F
:2034080000EA080008BF00280AD025710CF000FB06E025710EF07EFD02E0257153F018FA9A
:2034280020202F4600EA080017EA090708BF00282DD010F0A1FD2AE0AE4991F9000000288F
:2034480003DD91F90000401E0870514691F90000002803DD91F90000401E08704FF0807765
:2034680005EA080017EA090708BF00280CD0A24991F90000002803DD91F90000401E087094
:203488006046027010F010FF25710CF0C1FA9AF9000058B1002E08BFBBF1000F00F02381D0
:2034A8009AF90000002800F31E810CE193487D4F05703868D0F858242946084612E1794A57
:2034C80001232027002552688E4ED268DFF840B2137017EA09070D7005EA080108BF0029C2
:2034E80066D12A464FF0E04702EA080017EA090708BF002839D18449DFF810C24FF486007A
:2035080012EA090700EA080008BF002816D17C4812EA090700EA080008BF00285BD006F1FC
:203528002800B480B9F1000F80E8000308BFB8F1806F50D1088802284DD10EE006F128009E
:20354800B480B9F1000F80E8000308BFB8F5803F41D10888B0F5505F3DD1304680686746C9
:20356800436938682146984735E0624991F900004FF0807702EA080217EA0907A0F1010098
:20358800087008BF002A03D06046037010F08CFE5A46B2F90000844201D10CF039FA6FF0D3
:2035A80001005146B08091F90000401E087012E06FF001015A4600681180017859B15548CF
:2035C8000078832802D0544981200870316911B128468847B480474FAB4602201BEA0903B1
:2035E80000EA080008BF002851D04C49B1F8460143F20141814229D0C91C814226D04749DB
:20360800C98E43F604028A4220D0B6F9043097F900109C42A1F10101397002D0824220D12B
:203628001DE006F1280003C84FF482022C4610400C4008BF002802D10CF0EAF911E053F0F1
:2036480007F90EE09C23002095230020707897F90040401C7070601E38700CF0D9F910F0D5
:2036680065F82E480F4BA0F8465118686FF00104D0F8B800B480017811B12948017809B967
:2036880010F012FE9AF90000401E8AF8000097F9001009B9194805709AF90010E1B103E04F
:2036A800942300201401002002224FF0E041104611EA090700EA080208BF002A13D09AF9B6
:2036C800000000280FDC17480068D0F84C05804709E0C0465036002012480068D0F858248D
:2036E8002946284690470F484068C0680570BDE8F88FC0469D2300209E23002092230020AA
:2037080000000C8C901D002086160020801F0020941D0020E6380020E13800204015002004
:20372800E3380020140100202DE9F04FCB4C60692589216AA689806DADF1240D2A468919A6
:20374800083109F041F97619B0B26669B16D4919C34DB1652968D1F8D41091F88370216A4A
:203768000B1808331B780DF11E021370DFF8F882022F00F1010080B208D141180A7A666984
:203788004346591C0A70216A401C80B20A180832126802A9001D0A6080B2A081042102A866
:2037A80010F06AFA0290034610F062FFF063184610F09CFBA6F84000EA200FF0E7F8A94862
:2037C8004FF0020B022F80F800B00BD168684069007838B14146087810B94878FF2801D0FE
:2037E8000420E0706769E078397C084338749DF91E0011F013FA87F8460007F17406BE655D
:2038080039899DF91E007B6887F84800B7F85C004FF00008401AC01801467860B88987F81D
:203828004780820A18D2020926D310F0070F07D000F00700032812BF081C7868401C17E008
:203848007968C87800F00702401000F0380000EB42004018001D0BE02868D0F80813384650
:2038680088476769786E10B1B7F8680090B178687861B889000918D297F8600020B3286863
:20388800D0F80C13384688476769F86CE0B1B7F85000C8B92868D0F8541204F11400884711
:2038A800404660610CF0B4F8D4E02868D0F8B41438468847787067697E78B86978651EB175
:2038C800F2200FF063F867692E68D6F8B8100878002800F0B780BA89DFF890A1089202F0D2
:2038E8000702022A68D16378002B65D17B78002B62D161698DF81F800DF11600283110F06A
:20390800D5FE616928314F6803A847600E8906810A680260574607F110022B681088401C80
:203928001080D3F8B8006169436A486E0DF11F020421984704F1140938B92868006C0068B5
:2039480018B19DF81F1080F86810666996F83000022813D12868D9F80030D0F8D4705A460A
:2039680007F1200103F128000FF016FF30B907F116010DF1160010F099FE66693C48007888
:20398800862809D1BAF81200401CAAF81200B08900F010000DF0C2F92968B8310A6810785E
:2039A80030B1976C27B16069394688472968B831D1F89C11484648E02E4A1378002B3AD04E
:2039C800089AC2F30132022A35D1787800287FF469AF69689DF81E00896853460870E6789C
:2039E8006769988A002E07F1280207F11C0C00F1010098820CBF414608212E68D6F8B800BA
:203A08000378FBB11C4B404618600091CDF804C0D6F8D400117AD6F87863C38C0D20B047AF
:203A280010B90CF0FFFE01E010F0A6FA2E68D6F8B8106769087828B1896C19B138468847DA
:203A48002E686769D6F85812384688474046606110F0CAFA09B0BDE8F08FC04640360020EF
:203A680014010020E1380020DC1E002044220020E6380020E338002050230020B0B5044675
:203A8800C9480768ADF1480D002F00F08A812078401E122800F28581DFE810F068015401D4
:203AA8003A0125011E010801F600E800C800B700920067005D004C008301340026001C007C
:203AC80013007B6C002B00F06C810020A21C0146984766E1F86B002800F06381684621461D
:203AE80009F088FFF96B5AE1386C002800F059816846002101220BF091F860788DF8000036
:203B0800396C4CE1F86A002800F04B81684600210E220BF083F8A11C684610F095FBA57BF5
:203B2800A1890022ADF80A1005B101228DF80C20F96A35E1B86B002800F0338168460021B1
:203B480002220BF06BF8A5788DF8015060788DF80000B96B23E1786B002800F02281684617
:203B6800214609F047FF796B19E1386B08B36846002114220BF052F8A5788DF80150A36813
:203B88000193A289ADF80820A17B8DF80A1060788DF80000E57B8DF80B50237C8DF80C30D9
:203BA80094F911208DF80D2061690491396B684688476068002800F0F4800FF02DFFF0E0BE
:203BC800B86A002800F0ED806846002124220BF025F86078A11C8DF800000DF1020010F0EF
:203BE80033FB04F10C0103A810F02EFB257EE08A04F119018DF818500B22ADF816000DF1CA
:203C0800190008F0E1FEB96AC9E0786A002800F0C8806846002102220BF000F8A5788DF816
:203C2800015060788DF80000796AB8E0386A002800F0B7806846002112220AF0EFFF65888A
:203C480062796078ADF8025023798DF80520E11D8DF80000A5798DF804300B220DF10700E0
:203C68008DF8065008F0B0FE396A98E0F869002800F097806846002101220AF0CFFF60787E
:203C88008DF80000F9698AE0B86910B120460DF06FF8A07820B9A069002800F0828002E029
:203CA800A06900287DD00EF015F87AE07869002877D06846002113220AF0B0FF6D46A01CAD
:203CC8000168406829600B22686004F10A0102A808F07AFE796962E03869002861D02046AF
:203CE80008F05AF95DE0F86800285AD0684600210E220AF093FF6078A11C8DF800000DF1DF
:203D0800020010F0A1FAA089ADF80C00F96846E0B868002845D06846002114220AF07EFFC4
:203D2800A01C01686D46296040686860A07A0B2204F10B018DF808000DF1090008F044FE94
:203D4800B9682CE0786860B36846002110220AF065FF60786588211D8DF800000B22ADF882
:203D6800025001A808F030FE796818E03868C0B16846002119220AF051FFA01C01686D4604
:203D8800296040686860A07A02A90EF088FB0B220DF10E0004F10B0108F016FE3968684647
:203DA800884712B0B0BDC046282000202DE9FE4F0090B74F01913868DFF8DCA2DFF8DC82DA
:203DC800B74D02924030D0F89410DFF8D89291F88320B0499B46012A00F084807A68D268E5
:203DE80001230024137056460C70036834701E6816B9D0F80C05804702984FF0E24616EAD3
:203E08000B0604EA000008BF00284ED10299A24608201AEA0B0600EA010008BF00283DD0E6
:203E2800464696F90000401E3070B5F8D60042F20146864202D0311D81420DD148460068E4
:203E48000199826C0098904730B10088B5F8D61042F6014282420BD1B5F86600B0F5105F25
:203E680021D1A96F48460C3001600EF015FC2EE0361D8E4214BFE1201C2008F041FE98F9ED
:203E8800000028B198F90000002800F3FB80EAE03868D0F8582421462046EEE0464696F9B6
:203EA8000000401E30701D200FE0464696F900003D68401E3070286C00684068007880096D
:203EC80002D20FF01BFB02E0E92008F019FE98F90000002800F0CC8098F90000002800F356
:203EE800D180C0E07A68D2680123137000240C7001680E6816B9D0F80C0580474846006822
:203F08000199826C009890476749029ADFF89C910B8814EA0B064FF0020606EA020108BFAF
:203F2800002931D121464FF0E246114016EA0B0608BF002919D14FF486012026114016EAE3
:203F48000B0608BF00290AD1002874D0008840F6030181426FD01D2008F0D2FD6BE0019964
:203F680000985B46FFF70EFA65E0464696F900004D46401E30702878862802D00FF0BEFA3A
:203F880059E00DF0C7FF56E0464696F90010DFF820C15246491E317043F208419942147087
:203FA8000AD0B5F87E2001F1020E9E4504D0914202D07146914212D178B1008843F603011B
:203FC80081420AD006F0CEFA96F9000000284FD096F90000002855DC45E0B5F87E20B5F8A3
:203FE800F61043F6040088422ED090422CD098422AD0B5F84E20904226D0B1F5505F05D0FF
:20400800080B16D31D2008F07BFD12E0294800684E4600F5C070CCF814003078862802D06B
:204028000EF03AFB05E001990098029A5B460DF05DF910F039F9464696F90000C0B196F951
:20404800000000281EDC0EE01B480078022816D0032814D006F086FA96F9000040B196F9C9
:20406800000000280EDC3868D0F84C05804709E03868D0F8582420460146904702E020460D
:2040880008F03EFD7868C0680470BDE8FE8FC0461401002094230020932300209C23002070
:2040A80040150020981D0020DA150020E6380020901D002028010021452200202DE9F84F66
:2040C80009F0C6FBB24DB34C4FF000084FF0010A4FF0020B48E085F80080E3690FF03CFC9B
:2040E80020B9206A20F00200206203E0184610F0EFFE206A010927D3606910F0E5FE071C36
:2041080015D0616A69B1607858B1401E02D0401E0AD103E0B8680FF033FE616AB868884796
:2041280002E0B8680FF02CFE38460DF0D3FD606910F0C6FE20B9E06910F0CAFE206A03E01D
:20414800206A20F008002062C1080DD320F004002062206910F0B4FE30B9206A40F0100006
:204168002062E06910F0B4FEE0694FF0FF3110F0BBFE0FF08AFFE7882689A4F80680A28857
:20418800A4F80880216AA4F80480114347EA010246EA0201216210F06BF9206A010A24BF2E
:2041A80020F08000206220780CF098F8A16A002834D0074649B1A078401E04D0401E04D1C6
:2041C800384688472AE03846884738460CF029F8071C23D00C2009F081FB061C1BD00FF0D5
:2041E80054FFB7603B7881465BB92069314610F063FE206A40F010002062E06910F068FE63
:2042080005E030460DF066FD38460DF063FD484610F02EF902E038460DF05CFD206A4109C1
:204228002CD3206910F04CFED8B910F085FBC0B90FF02BFF0646206910F046FE071C0DD0D8
:20424800B8684068A061B968486849880AF01CF8B8680DF03FFD38460DF03CFD304610F05A
:2042680007F9206910F02CFE20B9E06910F030FE206A03E0206A20F0100020628108FFF41E
:2042880039AF66E09DF800006B78AE686F68A870D81C5FFA80F94946304610F065F89DF8AE
:2042A8000010814205D13FB1484631464246B84702E030460FF0B0FB85F8008049E0AF6892
:2042C800E8789DF80010C019C170E878401CC3B2EB700FF041FB6978C6B2C91AB1420CDBEA
:2042E800D8193146C01C0EF0CFFAE87869788019C0B2E870814222D02BE0DB1989B2DB1C21
:2043080018460EF0C1FA6878E87018E09DF8000085F803809DF800706870F81C0FF0CAFA05
:204328000028A8603FF4D7AE6978017085F800A00FE09DF80000A9688870687808B90520CB
:2043480006E0042004E09DF80000FE2801D1032028700FF001FB00283FF4BFAE6846514617
:204368000EF092FA28780028EDD0401E08D0401EDFD0401ECAD0401EA1D0401E82D0E8E79D
:204388009DF80000A968487085F800B0E1E7C046A0230020C80D00202DE9F04F1346587866
:2043A800ADF11C0D1F7804909878FB2F059080F2328104984FF0010900F01E000A2880F278
:2043C80026810498A14900F01F0051F82060002E069600F01C81049ADD1CADF80470059E26
:2043E8008DF8002028468DF8016032F07F04029000F00981002F4FF0040A00F0F7800178AF
:204408001B798DF8031021F007048DF80230083C00F0E580DFF83882083C4ED0083C07D0EE
:20442800083C40F0D980032F08BF4FF0000ADDE0032F40F0DB80841C02944446257DADF8E4
:2044480004900027012D30D1257F95422AD1627FB24227D1E27F514011F0070F22D1A17F0B
:2044680099421DD18078A8B1401E12D0401E032818D9001F02D0401E14D008E0607D1B1A33
:20448800B3F1FF3F06D007200CF0A0FBA2E008270EE0B9466846494608F0E4FA074604E0BC
:2044A800032705E007200CF091FB002F00F092803A466846202100278AE0042FC0F296800A
:2044C8008346A81C10F074FA4446054620783F1FFEB2002701282BD19DF80010227A9142FE
:2044E80023D19DF80110627A91421ED19DF80210A27A914219DB9DF803C0E37A9C4512D179
:20450800A3899D420DD1914206D0A1788E420DD0A1888E4205D109E002202070A1788E42E8
:2045280004D0574602E0022700E00327216927B99DF80230042808D020E008460DF0CAFBA8
:20454800504620709DF80230A372ABB969460EC904F1080080E80E00284609F0BFF9206154
:20456800002804BF2078062708D000206070A670A580A581207005E007B90327042823D0DC
:2045880002281DD02169A0789DF80220884612FB00F080B2324640180BF1040108F014FACF
:2045A8009DF80200A072A088801B86B2A68036B9CDF80880ADF804500627D14602E0207836
:2045C800042801D04E46267004F1080018213A460EF048FEBA4609E04FF0050A06E07F1EF8
:2045E800401CADF804704FF0060A0290D146B9F1060F0CD10699684688478146029830B14C
:204608000DF068FB03E00699684688478146B9F1000F02D10FE04FF004090498059F8DF8E0
:204628000C90002103228DF80D0003AB8DF80E70602003F003FD07490888401C08800020F6
:2046480002210AF025FB07B0BDE8F08F7821002068360020441E00202DE9F84F07469A4DB0
:204668009A4C28684030D0F89410267891F883B026B1D0F80C0580472868403001680E6830
:2046880016B9D0F80C058047A1460120904C89F80000012F677040F2AF80DFF83882DFF86E
:2046A80038A2BF1E54D07F1E3CD07F1E00F0C0807F1E21D07F1E40F0B6802968096C096899
:2046C80091F86D20628191F86E70002F06BFE070071CE7706868406856460178307810FB74
:2046E80001F0784381004046C16690F8701021F00F0141F0030156E0BBF1010F40F0AA802E
:204708002968D1F8D420096C09680020C98A6071C90934BF92F8251092F84E10A17010F09C
:20472800A5F897E00026BBF1010F66710DD12968D1F8D40090F85300D1F83C148847C07B9A
:20474800022802D1304607F071FE0DF043FC81E062482F680668D7F8D40090F88300012855
:2047680024D09AF800008700F06B8047DAF804103C23401AB0FBF7F1B1FBF3F25A43891AFF
:20478800227812FB03F0401A3C301FFA80FAF06B804707FB0A014046C16690F8701021F029
:2047A8000F0141F0020180F8701053E09AF800008700F06B8047DAF804103C23401AB0FBFD
:2047C800F7F1B1FBF3F25A43891A227812FB03F0401A3C301FFA80FAF06B804707FB0A01F6
:2047E8004046C0F8FC1090F8001121F00F0141F0020180F800112DE0002029686071D1F898
:20480800D400096C0968C98AC90934BF90F8251090F84E10A170B7B9C078A0B10229C4BF63
:204828000220A0700FE02868D0F84C05804711E02868006C006890F86910617190F86A00C5
:20484800A0700027A77100F0CBFA2868006C0068002836D02248007898B92868403001681E
:204868000F682FB9D0F80C0580472868006C07687A686178107800F0200020719078E07189
:2048880000E06178032903D0022918BF062918D110F0A4F9617802290CD01249097811B91B
:2048A8001149097831B1022189F8001052F0C4FBBDE8F88F832189F8001052F0BDFB0AF029
:2048C80071F8BDE8F88FC04614010020E63800204422002040150020CC210020981D0020E5
:2048E800AA320020E1380020E33800202DE9FE4F8B46054610F072F9944C012D029000F0C6
:20490800E08020460068D0F838038047002800F0D3800CF0CFFA002800F0CE8021464968E9
:20492800DFF840A28969DAF808000F783C30002F40F0C280864C0068257880476168E268A5
:20494800AF00401AB0FBF7F6A06890460027B946114646454B4673EB090301DA884206D84A
:2049680039464A4686428A4140DA024600E039461046EB172A46801BB9410FF001FD064626
:20498800794800680F46C18A00694018643080464FF00001B6EB080677EB09077042B9411E
:2049A80024DA0FF0B1FF02464B46394630460AF0ADFD0F4606464FF000017042B94115DA54
:2049C8000FF063FB054620690FF0E0FE10B1206910F0F0F828460FF04BFD2069314610F0DA
:2049E800E5F8206910F0E4F8002000E0012059490870884698F8000000285DD1534800687B
:204A0800D0F894000078002739460BF0CBF800B10127381C4DD14D480068D0F8D4004B4ED9
:204A280090F88370706880690078002841D1DAF80800494C436C606902216A4698479DF852
:204A48000000002835D0BBF1010F4FF0010921D0424EDAF80820606996F9001011F1020F26
:204A680006D0926B96F900109047DAF8082060693B4D95F9001011F1020F06D0926B95F988
:204A880000109047DAF8082060696FF001012970317002E0DAF8082060692C49496889690C
:204AA80081F80090D1698847012F04BF00208AF80000002088F80000029852F0BDFABDE86F
:204AC800FE8F2068D0F89400007801210BF06AF8029852F0B1FA606880690078012819D1A3
:204AE8000FF02AF860B1606880690178012911D10021BBF1010F01700CD00FF0F9FB09E040
:204B080010F06CF86168896902220A7052F094FA09F0C8FE0FF010F8B0B960680C30C168A4
:204B28000978022909D101680F7837B12068D0F84C058047241D20680C3001680F781FB9DA
:204B4800C16808780228FCD0BDE8FE8F14010020CC210020E43800206C1F00209023002080
:204B680091230020901D0020801F00202DE9F04F994E96F83D0096F83F10F37896F83C8034
:204B88000027ADF12C0D0918491E91FBF3F296F83D4077705A43891AC9B20891810001EB63
:204BA800C0018919B1F84C0096F83C10ADF81C00880000EBC1008019B0F84C50CDF8248080
:204BC80006A80DF05FFB70780A97A04500F0A180B946CB46BBF1010F00F09080BDF81C109C
:204BE800162966DD002840F09580BDF81C0001AAC01F81B2ADF81C10204607F0FBFDBDF855
:204C08001210BDF81C30884608F1070008F1100287B29A4246D89DF80E00962842D19DF854
:204C28000F00420839D2800837D3BDF81C0000230093A0EB08001FFA80FA9DF80D20BDF852
:204C48001C002346401A80B20DF038FEF8B9E819B0F5005F15DCF068C5F188520AEB443A06
:204C68003B46D21B514602F500520FF021FFED1909F10109ADB2B5F5005F08BF4FF0010B3B
:204C88000BE0BDF81C004FF0010BC01D2EE0BDF81C00401EADF81C0004E0BDF81C00A0EBEA
:204CA800080023E0204607A90AF018FF01281FD030E0F278B9F1000F07D0484BBDF81C70C4
:204CC800A10001EBC401C9188F830899A14220D04249641C94FBF2F05043241AE4B2A00090
:204CE80000EBC4004018808B4FF00009ADF81C0009997078A1427FF46DAF0AE0B9F1000FF2
:204D080007D0364ABDF81C70A10001EBC40189188F8320B106980FF01FFA102059E0DDF829
:204D280024804FF6F0704FF40051C5EA0040C5EA0141E1FA40F01FFAA0F283B2102102F19F
:204D4800885240460CF0D6FB71780843707006980FF002FAA0450FD1F278204F1019401E4C
:204D680090FBF2F15143401AC4B2A00000EBC400C019808BADF81C00184FBDF81C00A6F88F
:204D880040504FEA8801A6F8440001EBC80186F83E40C9198D83B6F9422096F83D10012324
:204DA80040460EF033FB96F83E10B6F94420022340460EF02BFBBDF81C001628DCBF0120B0
:204DC8000A90B5F5005F03DB0A9840F002000A900A980BB0BDE8F08FAC1C0020DC1C00205B
:204DE8002DE9F84F8C4E4FF000088C4C30688DF80080D0F8D400A57890F883B00FF071FED6
:204E08004FF0010A4FF6FF710AFA05F28918014030686181D0F8B800824D077847B3826B7F
:204E280032B342F21A00694690477D4867790378C3B1BFB99DF80030A3B13068D0F8B80074
:204E4800C06D78B180472978071C0AD07068406863890078083010FB01F0B7FBF0F1581874
:204E6800608167799DF80010608907FB010060816078002840F0B3806B483768016807F1E1
:204E8800D4000268DFF8A49192F88320012A33D0D0F888018047A1782A78002800F09B805F
:204EA8003368A9F8E280D3F8D43093F8314089F8E44093F8243089F8E53099F8E63043F08D
:204EC800200389F8E63099F8E6305043800023F01F0343F0020389F8E63099F8E630C9F8EA
:204EE800F00068F3871389F8E63089F8E78089F8E81089F8E98074E0C86B804704460AF051
:204F0800E1FB07462878810007FB01434C4604F1A40210784FF0020C6CF30300107070683D
:204F2800C4F8A030406894F80021007868F30302083080B201FB003194F8883084F8002138
:204F4800604660F3030384F888303068C4F88410D430016891F8831001293CD1D0F888011D
:204F68008047C0B36868D4F88410884233D294F8A400042368F3030084F8A4002A7875689C
:204F8800C4F8A08012FB03F001B2686894F888300078083080B2414323F00F0040F00300AB
:204FA80084F888004FF4FA55C4F8841094F88C00A4F89A8040F0080084F88C0094F88C00DD
:204FC800C4F894506AF3041084F88C0007FB02F00EF01CF905E01C2007F092FD01E002F02F
:204FE800B1FCBBF1020F14D13068006C006880B10F481149007848B90E48007830B9832237
:205008000846027009F0CEFCBDE8F88F022208460270BDE8F88FC046140100204422002008
:20502800AA320020CC210020981D002040150020E1380020E3380020E63800202DE9F0431A
:205048000546854A69780026ADF11C0D084631280FDC312800F0B480002800F0F680401E65
:2050680000F0EC80401E00F0E5802E3800F0C180DEE07B4C323800F08C80401E41D0401ECA
:20508800012817D9801E40F0D380A88802280ED114462068002808BF182109D0A8680FF0A3
:2050A80087FC216888470FF058FB014600E027213620BAE020680F4600B3A86802A90EF013
:2050C80026FE342F034608BF9B1C13F8012B352F03D1A988901D884208D0342F04D1A98822
:2050E80002F10800884201D0272108E0246802A803C8A0470FF031FB014600E018213846F1
:2051080093E0A888082836D114461034206880B3A86802A90EF0FBFD02460FF049FC95780A
:205128008146F82DC8BFF825A81C5FFA80F8404608F0D4FB071C1AD0B81C0090246802AB4B
:2051480093E803004A462B46A047041C07D13C70414633203A467D700FF072FC02E00FF0A8
:20516800FCFA044638460CF0B5FD2CB970E01A2402E0182400E0272406A83146022209F0BD
:205188004DFD8DF81840332006AA02210FF058FC5EE0A888314605280BD1241D206840B1BF
:2051A800A86804A90EF0B3FD226804A803C89047014602A80DF056F93220042102AAE5E778
:2051C800A888052812D114460C342068002808BF18210CD0A86802A90EF099FD226802A8DE
:2051E80003C890470FF0B9FA014600E0272131201BE0A888092816D11446241D2068002805
:2052080008BF182110D0A86802A90EF080FD0FF045F92468024602A803C83346A0470FF08B
:205228009CFA014600E0272130200FF053FA0FE026260DE0094A02200521A7E702A8432166
:205248000FF0B0FB02AA01209FE701200CF0DEFF304607B0BDE8F083580A00205021000017
:20526800700A00202DE9F04F694A794E1068ADF11C0D01A90190096806F110000446216000
:20528800516801AA01911268011D0A60614908220EF082FA28B960490A682046026049684B
:2052A80041605E485F4F4767604BC3675E4D85675B4901675F4FC0F884705F4BC0F8883057
:2052C8000024C0F89840C0F89C40594AC0F8944000F180052A605A4F5A4B584AC0F89070A7
:2052E800016FC0F88C20594FC0F8A030564AAF62C0F8A42009B12046884709F093F9554864
:20530800554FF0604FF0020A87F801A04FF0010B87F802B0514B7B625148B8620BF05AFB2E
:205328000423514A4F4913703878087048704F4F4F491375642207F10C000CF08FF9A146F5
:20534800DFF83081B8606F688DF8089077B102A84146009004AB891D0A6889881A6004AAC8
:20536800998092E803005B464A46B8472A6847464AB1B91D04A80B688988036004AD81802A
:2053880095E80300904739680DF1090001603D79057139480068400805D341208021062246
:2053A80002AB02F04BFE354D05F1140005F1080106F09AFC686048460FF00CFBAF1E8046F7
:2053C80007F8029F204687F801A00FF085FB014668684246C9B20CF073FF641C022CEFDB20
:2053E800274905F1200032220CF038F970684FF0FF310FF079FD0028F8D030780AF06EFFE3
:20540800041CF3D0FEF73AFB20460EF005FBEDE7C84F0050D4210000F0120050E409002084
:20542800F5C00000CD0D010015E300003DCC0000C9DD00002DEA000045BC000075EE0000B2
:205448001D060100494101000DF2000079F800001C200020481E0020C80D0020551B0100DD
:205468008D4601007421002068360020842000205D12010050210000E4230020281F0020AA
:20548800EDD000002DE9F04F7A4CA068416EADF12C0D02A88847DFF8E0A1DFF8E0B19AF9D2
:2054A800000038B1594691F90000002818BF002040F0DC800FF092FBDFF8C4910A9099F844
:2054C8000000800806D27D20002106F039F90025079001E00025079502958DF80C5005950E
:2054E80003208DF81800DFF89C81C8F87C51A8F8765198F88F7198F88011634B012665F31E
:20550800030166F3000788F8801198F8801188F88F7166F3C71188F8801198F88F1166F3A2
:20552800410188F88F1198F88F1165F3820188F88F1198F88F1165F3C30188F88F1198F8DA
:205548008F1165F3041188F88F1198F88F1160F3461188F88F111868D0F8282408F5C87152
:20556800F4209047494807789FB94846A768007880090FD3F86B8047C8F87C0198F88011C8
:2055880021F00F0141F0020188F880118DF80C600290A7683F4A3E484FF080738DE80C0049
:2055A8003F6D3D4B006808F5BA79494602AAB8470028608006D5022041F288310AF088FB6F
:2055C8002E464FE0594691F90000344F401C087097F90000401C38709AF90000C4F80C9021
:2055E8002946401C8AF8000002200AF071FB264F26483968057001F1AC021068077807B186
:205608008025B4F84C0017684FF67F7303401D432843A4F84C0098F88C21387860F3C71220
:2056280088F88C21D1F8D400C28CA4F85A20428D00F14403A4F858201A6804F14F052A60C4
:2056480058686860D1F8D400C18CA8F8A611418D00F14407A8F8A4113A6808F5CE742260B7
:20566800786860600A9851F0E7FC30460BB0BDE8F08FC046901D00209E2300209D230020D3
:20568800E2380020401500201401002095230020801F0020200043008D3300009C23002085
:2056A8002DE9F04F814DA868416EADF12C0D02A88847A8467E4C7F4DA178606902290FD13F
:2056C80070B1002006F062FAD8F80800416860698847281D0068806901210170002060610C
:2056E8004FF0010A002684F802A00028059630D109F07CFFD8B109F079FF012817D009F0D9
:2057080075FF052813D009F071FF0C280FD009F06DFF0D280BD009F069FF0B2807D009F0A8
:2057280065FF0E2803D02868D0F84C058047D8F8080000F1200130B92868D0F84C05804741
:20574800D8F808102031096804F1200088475148E0630DF0C7FF2968D1F8D40090F853000B
:20576800D1F83C14884707462868D0F8D40090F942000AF097FCB0F1FF3F05D0010828BFC4
:205788004FF6FF704449088038897968DFF80C913B6832464FF47A7BA9F81661401EC9F898
:2057A8001821414303EB5100B0FBFBF0A9F8340199F821016AF3030089F8210199F8200111
:2057C8006AF3C71089F820012868D0F8C4038047F8B9B88932496F68BBFBF0F0C0B2087041
:2057E8007968BBFBF0F008702868D0F8D40090F85300022806D00DF0AFF8032809D10521DC
:205808005C2001E00221A820264A11706968096808706769D8F80860A168DFF88CB03FB377
:20582800002006F0B3F92A68D8F808106069D2F8D420637892F853200F4693420AD0496810
:2058480088476868806980F800A0D8F80800A16806680EE0022100228DE806003F6D09F5F9
:205868008A76002302AA3146B847C8F80C6008E0366809F58A7904F1200358464A46B047EB
:2058880060612868D0F8D40090F853000BB06070BDE8F08F54F100806E16002040150020AB
:2058A800CC21002044220020482E0020901D00206C1F0020140100202DE9FE4F9B4615466B
:2058C800894682460FF08AF97B49019008680CAF504508BF48687B4C6FF0010828B1B03033
:2058E8000EF054FF002840F0D6800DF0C5FE061C00F0DB8004F5C0700FF05CF90023B4F927
:20590800A800C6F80C90401C86F832306FF31F30A4F8A800C6F808B0B4F8A800308667481D
:20592800C6F810A097E80C0020210027B8461940104006F1180383E80300424686F833207E
:2059480006F1200383E88001E8683064287C86F8440028687063287986F83800A868F063D2
:205968006869B064A869F064287F86F85000687F86F851002F7C27B9EF6817B1012086F861
:2059880044002F795FB999F80C0000F00F00022805D1012086F83800D9F80800706348464E
:2059A80008274568002D18BF002F70D100886FF30900B0F5305F18BF022506D196F83300D2
:2059C800082540F0100086F8330006F1180090E80C00414606F1180745EA0200194387E875
:2059E8000300D4F8CC00824507D194F8D000410824BF00F0FE0084F8D00031480768002F8C
:205A080039D004F194000090D4F89C10D4F8A02004F18C052B463046B84710F1030F10D0F9
:205A2800B6F93010B4F9A820914207D0B4F9A81001F6FF716FF31F31A4F8A81010F1020F6C
:205A48001BD010F1030F18D096F83300B6F9308040F0800086F8330000278AF8F47028683A
:205A6800864205D0F068007B00F00F0002281CD10AF0CAF819E06FF00200B4F9A810804657
:205A880001F6FF716FF31F31A4F8A81005E07F1E2846FFB285E76FF0020894F8D00040F08F
:205AA800040084F8D000C4F8CCA0019851F0C4FA4046BDE8FE8FC04654250020FFEFFF9FEB
:205AC800FC210000A82400202DE9F04F734C724FE06807F5A271ADF12C0D814207D170485F
:205AE80090F90000002818BF002040F0D1800FF075F80025DFF8CC810A90D8F80000A7F8B7
:205B08004651D0F8B8000078002807BF4FF4860AAB466EA090E8000CA068416E02A888477A
:205B28000320604E8DF8180030780595800807D27D20294605F004FE8DF81850079000E0E5
:205B48000795C7F84C51584B97F85001574AC7F8643165F3030087F85001E3685069B446A4
:205B680007F1340607F134019E420CD0B7F84420B0F840309A4206D1B7F84220C38F9A42E5
:205B880008BF4F4914D04E4EFD86494BBE6301221A7097F8412022F00F0242F0020287F871
:205BA8004120FD6397F8402065F3030287F84020DFF8009199F800700E46FFB9D8F800109C
:205BC800D1F8B8100F781FB99CF80010890915D339490F7837F07F0710D1A068C06B80471E
:205BE800B060307B012720F00F0040F002003073B0688DF80C702D4B02905869A1680F6D5D
:205C08002E4B02AA8DE8000C3146B8470028608009D50A9851F010FA022041F288310AF085
:205C280057F8284634E01E49274F91F90000244E401C087097F90000E6602946401C387095
:205C480002200AF045F8D8F80000AC3001680F7889F8005007B18025B4F84C10806A4FF6E2
:205C68007F720A4015432943A4F84C10C18CA4F85A10418D00F14407A4F85810396804F12E
:205C88004F063160786870600A9851F0D5F901200BB0BDE8F08FC04640150020901D00206D
:205CA8009D230020E238002000C422646C1F00209423002095230020E63800208D33000020
:205CC80084160020140100209C23002000004F8C200000012DE9F0470646F08917468946B4
:205CE800ADF1280DC01D80B2054607F01DF97A4CFF280BD1284651F0EFFF854204DD641CD4
:205D0800207800B90520E3E0012000E000206178D9B917B1022F18D1B8B1307A8DF80C0030
:205D2800F788ADF80A70B588ADF8085000230093E18E94F8330001AA032302F029FA9DF824
:205D480014003074BDF81070B78194F83310E58EE06806AA0423884649030EF0A9FE069858
:205D680000F0FF0100F0FF007E2806D140467C210CF00CFF069901F0FF017C2940F0A5800B
:205D8800F08942F20102C11D8FB2E9198A4240F39A80F188327AC1F301238DF81D10B18829
:205DA80043EA82038DF81C308A1006468DF81E200423C0F3851201F0030142EA81128DF805
:205DC8001F2010FB03F1F21D01F0FC01731990B28DF820101FFA83FA0D282BDB4846314627
:205DE80000220EF0AFFD0246052107A80EF0AAFD9DF82010334600F03F064A4641EAA0112E
:205E0800B0008DF8201040F0020096268DF8210029468DF8226040460BF06CFB0646514640
:205E280007AA0723404666700BF064FB304360704DD135E004F124004946324606F0C4FD7C
:205E480007A90A68301900F12409484609790260731D0171002204F1240099B20EF072FD4A
:205E68009DF82010962300F03F068DF8223041EAA011B0008DF820103B4640F0020007AEE7
:205E880049468DF821003268B0790A60B288887140468A8004F1240229460BF02BFB60705A
:205EA800E18EED194FEA8806AAB2C919E18606EBC8010919A1F84C2048B1404651460BF007
:205EC800E5F8607803E0052000E001206070C0B20AB0BDE8F087C046AC1C00202DE9F047A9
:205EE800DFF8B4910E46D9F808101F4615460446ADF1300DBEB1B5B130784FF0010808FA95
:205F080000F001420FD0104600210EF06FFEA56066600EF063FE614D82462878022804DB3C
:205F2800504651F089F80020B2E000286CD101F04FFC5B495B4E086840F00200086008A8A7
:205F4800C9F800600EF052FC574E5849707808AA0A9005F1D4000AF00FFE554905F58470F5
:205F680008AA0AF009FE08A80EF018FC192108AB3078504A099005F154000CF0CBF84E4A3B
:205F880005F170001A2108AB0CF0C4F84B49002205F59E7013460BF03DFE4949002205F5F2
:205FA800C07013460BF036FE46480068C0F3814030B1454A05F12800042100230DF03AFAB0
:205FC800B078012802D10E2005F018FC05F194000EF090FA05F18C000EF08CFA002185F8A8
:205FE800241029762962072085F8280285F82510364B1970A9600526E960354A2E61042002
:20600800EA610DF04BFB287805EB8001401CC1F8AC40C0B22870504651F00EF81FB968466B
:206028000EF0B8FA6F4638684FF4FA76E6602060B86941466062388A6175E082F869E062D3
:20604800786800280CBF40F6C410002120612148E06120622175A061F86800B1E0617869C3
:2060680000B12062B86800B1A061C82204F13000002108F0D3FD04F1480000210CF0EAFFD8
:206088001549002204F1B00013460BF0C3FD20460CB0BDE8F087C046CC210840A82400205A
:2060A80000200940110000E08C210000C1410100D5AE00002507010049F90000813A010020
:2060C800853E0100B44F00502D110100AB320020D5A000009B9800005D4B01002DE9F04FBF
:2060E800754C0646A068D0F80001807AADF15C0DC00007F0F3FB00280C9008BF1A2400F05B
:20610800D6804FF0010AF07D8DF848A006F118018DF849000A680DF14A073A604A687A6038
:20612800097A39720EF05AFD1590A068D0F888240DF1460181209047B07D00283DD0042070
:206148008DF803A04FF000088DF80400B78A8DF80280A568ADF80070D5F894246946D220AF
:2061680090474FF6FF79C34645461DE0C00043F800B0B18AC0188180DCF80020D42008A99A
:20618800904702E04846ADF804008DF80780B08A8DF806803B68ADF80000D3F8942469463C
:2061A800D12090476D1CADB204F108073A6802F580721068C088A84236DCB08A00279DF8E6
:2061C8004920ADF838000DF14A018DF83A700DF13B0006F0F9FBA068D0F894248DF844A0E5
:2061E8000EA9D0209047071C18D1B08A31461022ADF808000DF10A0006F0E6FB3069A768F6
:206208000790D7F8942402A9D3209047071C02D10C9838B104E00C9820B101E00C9808B1C9
:206228000BF058FDFCB23FE0ADF80250B08AADF80000D2F888236946D12090470028A1D1DD
:20624800BDF8040081459DD0ADF82000A068D0F8882408A9D420904704F1080718B10C981C
:2062680008B303461CE0386804F108073B6800F2944CD3F8000190F80AE00C9B404601E0B1
:20628800401CC0B2864507DD03EBC0018988894502D0B28A8A42F3D186457FF467AF13B135
:2062A80018460BF017FD1924159850F0C5FE204617B0BDE8F08FC0460C0100202DE9F04FA3
:2062C800704C002704F18C00ADF1140DB946B846056802978246CDF80C9025B3D4F8A00023
:2062E800B84203D1D4F89C00B8421AD0D4F89C60F6B1D4F89C1028690969884218D195F852
:206308003300400914D30127D4F89C00C06840880028F9D0D4F89C00C06840880128F3D05D
:2063280006E0012704E004F1D40002210EF06CFC002D43D087F0010B03A802AA594607F061
:2063480083FD5FEA000809D0012F07D0039929B104F59E700EF097F84D462FE0002D2DD0AE
:206368004948066856B3B8F1000F27D0039828BBCDF800B002980190D4F89C00D4F8A0105C
:206388000AF108035246B047401E02D0401E08D014E0029800B9284601214B4600910146BA
:2063A80005E001230093D4F89C00D4F89C100069B1F930104A4602F07FFE60E0002F5ED06A
:2063C800002D5CD060682969884252D1B8F1000F0BD0039848B1D4F89C0030B9D4F8A00031
:2063E80018B908200CF0E8F849E008200DF070FD95F8330004F1D406C0F3001028B950463C
:206408000DF047FAC4F89C0004E050460DF041FAC4F8A000A8691D49C0430860A8694A682B
:2064280010434860E869C04341F8080CE86951F8042C104341F8040CEC68082029460DF06A
:206448002DF920460DF006F92088A0F6020040B141F21E01401A04D041F6E671401A0128EA
:2064680003D8012021460DF019F94FF08041304603E004F1D4004FF480610EF0C5FB05B0E9
:20648800BDE8F08FA824002000220000101004402DE9F04F8246ADF11C0D01F099F95F4850
:2064A800007809F0A3F85E4C0026012811D90C380FD0401E14D0401E012805D80DF034FEED
:2064C800022803D00DF030FE21680DE005211F2608E00DF029FE0228F6D101210E4601E057
:2064E80003210726204601604E4AD068C0F38150012804D112680120120E904006430EF058
:206508005DF9DFF828B1DFF82081FF2240185B46401E471CC8F800007F1E03F8012BFBD1CA
:20652800DAF80020002702F0FF03FE2B1CD0D4463B46012502F0FF04FF2C0ED0A04205D3B8
:20654800A14203D805FA04F4264201D0022062E002F0FF0227430BF802305CF8042F5B1C51
:2065680002F0FF04FE2CE7D1092005F047F93048C0F800A0374801210CF06CFD364C002561
:206588004FF00109A84609FA05F0064214D1074207BF05F0FF0141F4C0411BF805005AF8F3
:2065A8002010244803F016FDE8B24FF0FF310DF043FAC4F8008001E0042020601A48006863
:2065C8006D1C241D8542DED904A80EF0E7F81A4C20781B4A05901948102104AB0BF09AFD17
:2065E80068460EF003F96068174902901548CDF80C806A460AF0C0FA144951F80D0C20F44C
:20660800F85040F4005041F80D0C114AC1F8FF9F4046C2F8009007B0BDE8F08F3234002071
:20662800F8230020A84F0050F423002090360020B4380020007FC767F42100002837002066
:20664800153E010020350020451A01000D3009402C00094000330020B43100202DE9F04F61
:20666800634D804605F108000068416EADF14C0D02A8884763490A68D432106890F88390E0
:206688006148DFF860B10778002F00F09E805F48077837F07F0740F09880BBF81600524C23
:2066A800B9F1010F00F10100ABF816000AD000200590E06694F8703060F30303012084F876
:2066C800703019E0C4F8FC8094F8000120F00F0040F0030084F8000194F80031012060F354
:2066E800C71384F800310027C4F8F87094F8013160F3030384F8013149683C4BC96818700A
:206708000F781FB9D2F8842300219047B9F1010F01D10DF021FA0EF061FAA84604F164075E
:206728001290DFF8D0A0D8F80810F87BB9F1010F11D00025A4F86650294605F001F8079007
:20674800D8F80800066D5246294608208DE80300106802AA15E0496E0AA8884704F1F407FE
:206768000025388A0D95294604F0EAFF0F90D8F80800066D5246294602208DE80300106839
:206788000AAA1D4B3946B0471C495A460880118B002810D41A4991F90000B9F1010F00F192
:2067A8000100087014BF6434F434C8F80C40129850F042FC12E0491C88B22F46108312499D
:2067C80012980F7050F038FC06E00F495A460027108B0F70401C10830DF0CEFB13B0BDE8D8
:2067E800F08FC046442200204015002093230020901D0020801F00209DC1000048230020C6
:206808009C23002014010020E3380020E6380020F8B5694C2168054614310868407F002811
:2068280000F0C880D1F8C000B5F84220C08C904240F0C080D1F8581305F1280088470028A9
:2068480000F0B880206840690026467721687031486E90F8290028B16068816A02208847E6
:2068680021687031086890F82B0018B16068816A01208847287C400908D36068816A1020AC
:2068880088472068D0F82813802088476068C16B202088472168C868D1F8FC141030884783
:2068A8006868226841785269007800EB0120C0F30321517622685269C0F30037977622681A
:2068C800526900F00F03C0F3031793772068D0F8D40080F82C7022680C32D2F8C81091F8F1
:2068E8004F000F2806D093689B7F984202DD6B68DF780FB19068807F4873106880F830604A
:20690800D2F8C800417B0F290BD19068C07E022850D1D2F8580180472068D0F86C0180471E
