:20000000A03A0120A527010039FB021039FB021039FB021039FB021039FB021039FB021074
:1C00200039FB021039FB021039FB021039FB021039FB021039FB021011FB021002
:20003C006C420020043E0020D0410020E43E0020D02800205840002074420020E840002013
:20005C00E0410020783F0020481F0000CC23000088240000E8230000DA230000F041002011
:20007C000C2700201027002014270020182700201C2700202027002024270020282700205C
:20009C002C27002000420020783E0020A8410020A43F0020121A0000A0190000841A00000A
:2000BC00F61A0000681B0000602200001024000004240000B2420020404200209429002020
:2000DC00044100208C2800208242002083420020183F0020BC410020442300203027002070
:2000FC00981800009B150000B01D00009C2000209C23000054390020A8420020A44200205F
:20011C0034270020382700209C420020D01E000054410020503B0020C43D0020B41C00008C
:20013C00B82900208442002094420020B42400003C250000D8260020B8340020A02A002079
:20015C00014A031049480310D5490310154703102DD800005D49031081470310A14603104E
:20017C009548031045450310254A031021440310ED47031099490310E148031021490310E7
:20019C005553031089520310CD520310655003108D4E0310D5DC00004DF10000B5140100F9
:2001BC00FD69000059510310ED500310A1CF0000CD4B03102952031011530310A9550310FF
:2001DC007555031069530310DD55031035550310D9D8000021540310855C03100D560310D2
:2001FC004D5D0310A9640310B55B03106D570310E5610310095E0310C55803108560031011
:20021C0071610310B16203109963031055630310FD600310B15E0310DDCB0000D55A031061
:20023C00D559031009630310D963031019640310555F0310C56403104D6203107164031056
:20025C008D64031055640310E16403102975031079720310A16B0310F57203109D740310EE
:20027C00797403102D74031061730310FD7303105574031015750310D96C0310FD740310EF
:20029C007D970000E17403103D75031079700310F9640310CD6803102D710310C174031054
:2002BC00F56E0310B973031029670310056E0310C56F0310E1710310A1770310797D031064
:2002DC003D7E031049750310157E0310357D031099760310997C0310257B031071780310FF
:2002FC00B57D0310ED7C0310857E03102D790310B97A0310917B0310B1790310ED7B031035
:20031C00E97D0310617E0310357A0310D57E0310457C0310A57E0310BD7E031045C10000D0
:20033C00D9800310E97E031049830310898403108D8103107D820310E58403102B8403104B
:20035C00C5830310918703106188031045880310F1850310B18803107D880310C9880310CE
:20037C001D870310A186031001850310E188031099880310F9870310E1CE0000359C031001
:20039C00819D0310E99A0310359B0310C19B0310419A0310F18803101D8C0310618F0310EF
:2003BC00F1940310919E0310C19E03103D9E0310699E0310259E0310619D03100D9E031028
:2003DC00819B0310ED93031055990310C9970310D9980310BD950310959C0310C19D03102D
:2003FC00A59E03107D9E0310C99103100DEF0000699C0310DD9D031095900310FD9B03106C
:20041C00CD990310158E0310019D0310E19C0310219D0310419D0310BD9C0310F59D03107D
:20043C00A19D031055980310E1920310999A0310B99E0310559E0310D54C01006567010024
:20045C0039A203101F63010069A1031075A20310C59E0310B9A10310F9A1031015A103106F
:20047C009DA20310557201002BC70000BDD40000A544010071710100E54D000031A90310D7
:20049C00ADA2031029AF0000B9A8031099A5031025B9000039A803106DA9031089A6031004
:2004BC006DAC031099B1031009AF031059B1031001B103109DA9031009FB000005EB00009D
:2004DC00FB38010095E200004D6D0000A12B010069DF00003975000051B50000B9BD00005C
:2004FC0081C50000F1B9031075BA031081BB03103949010049010100DD200100FDC70000BC
:20051C0085460100E91B0100AD5201004D1C0100014901005D5D0100396601007D20010040
:20053C0095370100A54D0100792F01000DE50000AD690100AD090100C9390100DD6901002C
:20055C00FD78050081700000A96B000025840000E9C6031005610000B1A70000C56C0100A5
:20057C00F94A01004B6701003D210100437401007F670100B16C01002F7501002124010061
:20059C0011F40000BDF000000E1417040E1440040E144A040E1467040E1470040E147904B8
:2005BC000E14820453895499298DFDBE53455425FEAE5C44B7AD5B745B540070AC7CB56849
:2005DC00A7003914B668A8003914B768A9003914AC7801F801FAF2BEB378B5680EFDB768A9
:2005FC0092ED06FDB37CB27801FA05BE0270B27CB27800FAFDBE40648704AC781F8F8FED4A
:20061C0001EC01BEB7ADB78D5B755B55B178BF6027EF40E227EF0070B17C87047764000051
:20063C00B318889D019C0EB6A61019AF00AA0AB6FFA839AF07BEAC0C0086A888088F47FDC8
:20065C00B79DAC080188018AEBBE4F25FEAE5B645B447744870456565B655B450000AC0C31
:20067C000100AD0C2B15870457565B665B460000AC0C0200AD0CC915870458565B675B47DC
:20069C000000AC0C0400AD0C161487045B765B56FF86FF03AF0C5C64AE78AF6837ED05B674
:2006BC000000AE0CB47C4065AF0CAF78B0680EFD01F85AE90EFD01BE5365B7BD0B7096FB4C
:2006DC0053445424FEAEB7AD53645424FEA6007096FBB7AD0000DB002A01DD0100000000C3
:2006FC00000000000000FFFF000000000000000000000000000000000000000000000000E0
:20071C00000000000000000000000C000000000000000000000000000000000000000000B1
:20073C000000000000000000000000000000000000000000000000000000000000000A0093
:20075C00BB7747FD47FDBB57FF88FABE0000008BB366BA570A00038B1F00038B5200038B98
:20077C000824FEA6B346BA77C38650030188498BB18DC38650030188498BB18DB366BA57CB
:20079C000A00038B2A00038B0100038B0824FEA6B346BA77B366BA570A00038B2D00038BE7
:2007BC000200038B0824FEA6B346BA771400828B238622037E8B3500578B5B665B46577655
:2007DC0080641300568B5B655B4556760B00BB7747FD47FDBB57FF88FABEB7ADB7AD01001A
:2007FC00BB7747FD47FDBB57FF88FABEDA080210BB7747FD47FDBB57FF98FABEB366BA5799
:20081C000310BB7747FD47FDBB57FF98FABE0B10039B0E10039B0444069941AD429DA0AD18
:20083C00A89D0A9DB91CC2203A9F0444069941AD429DA0ADA89D0A9DBC1CCA203A9F044450
:20085C00069941AD429DA0ADA89D0A9DBF1CD2203A9F0824FEA6B346BA770188088A01BE5D
:20087C000000DA0C00100000C2201AAF229D0188088AFAAEBA1C00100000CA201AAF229DE1
:20089C000188088AFAAEBD1C00100000D2201AAF229D0188088AFAAEC01CC108008A049E82
:2008BC00C108FF88C10CB105BA08908DC018909D0020298D019E0120BD08908D0030298D07
:2008DC00019E0130BB0828AD04B6AE080182AE0CAB05BE0828BD03B6AE080182AE0CBB2CF9
:2008FC00BE3C0400AB18018DAA0C1400828B238622037E8B3500578B5B665B4657768064B5
:20091C001300568B5B655B4556760400BB7747FD47FDBB57FF88FABEB7AD0C00BB7747FDA6
:20093C0047FDBB57FF88FABE56565B655B450100B80CAE080182AE0C0400AB18018DAA0C37
:20095C00B7AD56565B655B4557565B665B46B366BA570A00038B2D00038B0000038B0824C5
:20097C00FEA6B346BA770F00BB7747FD47FDBB57FF88FABEB7AD0304010000000000000007
:20099C000000000000000000FFFFFFFF5C2A00200400000000000000000000001400000081
:2009BC0030FD02101800000014250000540A0000342A0020040000000000000000000000AB
:2009DC002400000018FD021018000000456B010008000000440B0000080A0000C1C80210E3
:2009FC0001BB021091EB0210DDE5021081E00210B9E5021071E502103400000001000000EB
:200A1C00020000001C25000000000000FFFFFFFF542A0020040000000000000000000000D9
:200A3C0028000000B8FC0210240000001E0000001800000000000000BC0C0000680A000018
:200A5C009BEC021025E2021005EB021025DE0210FDE10210E1E40210320000003400000084
:200A7C00240029000000000068290020FFFFFFFF7C2A002004000000000000000000000096
:200A9C00380000006CFC02102800000001000000100000000000000000000000F7F1021055
:200ABC0000001A0010000000030000007C2400000B2300000800000036000000F0280020A9
:200ADC006C27002009001D003B1E0100E02400200100000000001200FFFFFFFF6C2A0020DE
:200AFC000400000000000000000000001000000048FD021018000000000000000000130044
:200B1C00FFFFFFFF842A002004000000000000000000000054000000A0FB02103C000000AE
:200B3C00000001003000000098090000031301003300000013740100440B00006C0B00002F
:200B5C0059D20210D9DB021059EC0210CDD6021085DE02104DE5021029E50210330000005E
:200B7C00000016000000000000000000FF7F000018250020FFFFFFFF642A002004000000BA
:200B9C00000000000000000058000000DCFB02103400000039FB0210010032000600000045
:200BBC000000000020000000010000001BF8021028000000BC0C0000E40B000093EC021063
:200BDC006DEB02104DEC021029E00210BDE4021099E4021030000000000000003C2A002031
:200BFC000400000000000000000000001000000040FC02102C000000000000000000030048
:200C1C0000000F003C00000000000000000000002FF902101000000008000000E422000015
:200C3C00FFFFFFFF742A00200400000000000000000000001C000000DCFC021024000000B0
:200C5C00D00B0000242A00200400000000000000000000000C00000000FD021018000000F8
:200C7C009B210100000000000000000008000000010000000400000000000000000014007A
:200C9C0000000000001E00000000190000001800240000005F7501000040000000020000AE
:200CBC00980900000000100055F002100C00000045B10000000000001C2A002004000000A4
:200CDC0000000000000000002000000010FC021030000000181E000001000000E1730100FE
:200CFC009312010000000000000017000002000034000000000023000000150001000000AC
:200D1C00540B00004C2A00200400000000000000000000002000000094FC021024000000D8
:200D3C00301E0000F02900202000000054200000CC380020403E0020042A00205C420020AE
:200D5C00702400207C4200200C1800002842002040380020D43A0020803D0020E429002067
:200D7C009C2A0020AC2400000908031001010310890903105D030310010503108906031095
:200D9C00D1080310210A0310810B0310810A0310110B0310510B0310D10A031029100310F8
:200DBC00610D0310890E0310050E0310B50F0310D10B0310511003103D10031065100310A4
:200DDC00FD0E0310ED0F0310B50C0310650F0310111003106910031009120310F512031067
:200DFC00AD110310291103105D120310B112031019250310552703108D240310F126031093
:200E1C000528031089260310CD23031059280310ED1F0310251303100D210310911D0310B1
:200E3C00B12703100D2203109925031019260310A91B0310CF280310952803103929031020
:200E5C00052903106D29031099160310C91E03107D1903100D230310C92C03101D2C031080
:200E7C00292D0310B52B0310F52C03109D290310CD2A0310452B0310472D0310112D031088
:200E9C00412D0310752C031029340310C138031071360310A12E0310813303106D3803106A
:200EBC00A93A03103D3A0310C534031011380310753A03104D2D031009320310E12F03106E
:200EDC0015390310F939031019310310B1370310F5350310B13903105D350310C53203100F
:200EFC00E5360310693903104D370310253D0310413D0310F53C0310C93A0310A53C031008
:200F1C009D3D0310593D031019430310CD3D0310A14303104D400310093F031061420310EB
:200F3C00CD400310C9430310E5430310C93F031011440310FD4303101F440310A9420310D1
:200F5C0019420310E1420310C14103107543031049430310494103101B440310AD0B031078
:200F7C00BB740100BF740100CB740100E7720100CF740100C7740100C3740100D774010053
:200F9C00D3740100884200206D400021D740002199400021F94000210541002111410021CF
:200FBC002941002141410021074C657900F009F861796940490703D50121044A89031160AD
:200FDC0070BD70B50249084780030021081104402D59000000F019F8E1B26C290BD0042852
:200FFC0001D0062807D10E490978C90703D12178090700D402200B490A780C21114202D0BB
:20101C00094980220A6003B0F0BDF0B583B007490847044801784022914301700448004780
:20103C00C80000213301002100E200E041160300231B030000F082F800480047577F00002A
:20105C0000F082F8004800471B880000094B1A780824A243002800D022431A70004A104759
:20107C00838E000003490878000701D40248004770470000800300215F7E0000044A28203C
:20109C0090470448012141600348044A416010474F4200000050044000600440854200002D
:2010BC0070B51F4D2878C4B21E4880472878032834D1032C32D01C488068400DC2071A487B
:2010DC00014660318030002A03D01F240C57458802E01E240C570588002C1FD01348154A13
:2010FC00416900794143481011494969401810494039497F904740054015694288420DDB09
:20111C00A8420BDC0C4B996988B20246090C624309045212801880B20843986170BD0000A1
:20113C00E402002179410000280000218003002100030021CB81000040400440806B0C4971
:20115C000007000F48717047094A0A4918235079CB56497EC018814201DD084602E00F287B
:20117C0000DD0F20D189090909010143D1817047E0020021880000213C2020202020204399
:20119C004F4E4649475552452020202020203E003C2020202020205345542050414E494462
:2011BC002020202020203E003C20202020534554204348414E204D41534B202020203E0029
:2011DC003C2020202020534554204E574B204B455920202020203E003C20202020202042F6
:2011FC0041434B2020202020203E00C03C2020204E4554574F524B20414354494F4E53202F
:20121C0020203E003C2020202020204153534F43494154452020202020203E003C20202002
:20123C00204449534153534F434941544520202020203E003C20202020202020202041502B
:20125C00502020202020202020203E003C20202053454E44204C4544204944454E54202035
:20127C0020203E002054492053656E736F7220003C20202020202048454C50202020202098
:20129C00203E00C0002020202020202020202828282828202020202020202020202020208C
:2012BC00202020202088101010101010101010101010101010444444444444444444441042
:2012DC001010101010104141414141410101010101010101010101010101010101010101F8
:2012FC001010101010104242424242420202020202020202020202020202020202020202BE
:20131C00101010102000000000000000000000000000000000000000000000000000000051
:20133C00000000000000000000000000000000000000000000000000000000000000000091
:20135C00000000000000000000000000000000000000000000000000000000000000000071
:20137C00000000000000000000000000000000000000000000000000000000000000000051
:20139C0000000000000097B92EE5725CCB5DCAE473B82F0196BA2D03945FC8E671E7705E88
:2013BC00C90295BB2CE3745ACD0691BF28BE2907905BCCE27559CEE077BC2B05920493BD82
:2013DC002AE17658CF51C6E87FB4230D9A0C9BB522E97E50C7EB7C52C50E99B720B6210F6F
:2013FC009853C4EA7DB2250B9C57C0EE79EF7856C10A9DB324089FB126ED7A54C355C2ECC4
:20141C007BB027099EA2351B8C47D0FE69FF6846D11A8DA334188FA136FD6A44D345D2FCB0
:20143C006BA037198E41D6F86FA4331D8A1C8BA532F96E40D7FB6C42D51E89A730A6311FBD
:20145C008843D4FA6DF3644ADD1681AF38AE3917804BDCF26549DEF067AC3B15821483AD32
:20147C003AF16648DF1087A93EF5624CDB4DDAF463A83F1186AA3D13844FD8F661F7604EFF
:20149C00D91285AB3C00CD2A031000452B0310021F44031000FD430310011F44031000FD0D
:2014BC0043031003D10B031000FD430310045110031000FD43031001472D031001412D03B0
:2014DC001001FD43031001FD43031001FD43031000752C031001FD43031001FD4303100187
:2014FC00FD43031001FD43031002472D031002412D031002FD43031000752C031002FD43D2
:20151C00031002FD43031002FD0E031002FD430310046510031000FD43031003472D031069
:20153C0003412D0310031F440310031F44031003FD43031003D10B031003FD430310007506
:20155C002C031003FD43031003FD43031004472D031004412D0310041F440310041F440390
:20157C0010041F440310046510031004FD43031004FD430310043D10031000752C03100073
:20159C0001363601010001020100010301000104010606080400000C0100340D01000F102B
:2015BC00040101140100FF1608000020020000220100FF23010001240100FE2501000826F7
:2015DC0002000028010001290100012A0200002C01000F2E02000030010001310100083262
:2015FC000200FF34010007350102FF360100003701000138010001390100FF3A01000F3CF2
:20161C000200FF3E01010F3F0100014001041F41010001420100FF43010080440800004ED6
:20163C000100084F01000F50010001510100FF5201000A5301008954010001580400005C3B
:20165C000400006004000064040000680400006C0400007004000074040000780400007CDE
:20167C00040000800100FF81010001820100018301010284010001FFA42A0020B4420020B3
:20169C00B5420020A52A0020AC420020A62A0020A72A002061720100514B0000056901005A
:2016BC00595701002D570100F52B0100492C0100C5000100E93B0100255A01001D52010066
:2016DC00292F010073730100D96C0100C55F0100094D0100F15C0100D55601000157010019
:2016FC003D4D01004D52010019FC000019CB0000B7580100D92E01001D2001003D720100A4
:20171C00497201004BD30000C9650100DBE9000071E400004D3701009DF40000714D0100B6
:20173C006D720100A56101006569010037750100C1460100898500006561010051F7000005
:20175C00794001000308000000000000000000000001640300000000000000000538000003
:20177C00000000000000000000000000000000000000000000000000033800000000000012
:20179C00000000008201081014000084000000004E90550000000000073800000000000088
:2017BC0000000000000121030F008000520798E00800C8101C280020640300800500000058
:2017DC00043800000000000000000000000188F94E90550000000000FF0710580000FC0191
:2017FC000000000000000000000000000000000000000000000000000000000000000000CD
:20181C000000000000000000000000000000000000000000000000000000000000000000AC
:20183C0000000000000000000000000000000000000000000000000000000000000000008C
:20185C0000000000000000000000000000000000000000000000000000000000000000006C
:20187C00000000000000000000000000000000000000000000000000000000003600010015
:20189C000600000000000000000F000000000000000000000000000000000300FFFF000016
:2018BC000403FFFF0000FFFF0F00E8030005401F0310000101000000FF3F0F0008000E0033
:2018DC0000000000000000000300010F0000090100000000000000000000000000000000CF
:2018FC0000000000000000000000000000000000000000000000000000000000AD0000011E
:20191C000000000000000000000000000000000000000000000000000000000000000000AB
:20193C0000000000000000000000000000000000000000000000000000000000000000008B
:20195C0000000000000000000000000000000000000000000000000000000000000000006B
:20197C0000000000000000000000000000000000000000000000000000000000000000004B
:20199C000000000001017101010101011101010131010101010180010001100161013B0039
:2019BC001400630173017201620143010001130106013D013500040112010001000100015B
:2019DC00000104010401330133013C0144013201360000010001650100013500810100016C
:2019FC000501820183010001660100010001080109010A010B010300710030016000110014
:201A1C00700031022003500480000700100061000000140063007300720062004300000097
:201A3C00130006000000000004001200000000000000000004000400370037003C02440063
:201A5C00000000000000000065000000350081000000050000008300000066000000000061
:201A7C00080009000A000B00030271023001600211027002010202020202800200021002F3
:201A9C0061023A0041006302730272026202430200021302380000020002040212020002E6
:201ABC0000020002000204020402370037003C024402000239000002000265020002350227
:201ADC00810200020502820283020002660200020002080209020A020B020103710301033D
:201AFC00010301030103010322030203010300031003000300030003000300030003000361
:201B1C0042030003240306030003000304031203250323032503230304030403000300035F
:201B3C000003440300030003230300036503210035038103000305030003000300030003B4
:201B5C0025032303080309030A030B03030471040204600411047004020402040104020463
:201B7C0000041004610400041404630473047204620443040004130406040004000404047A
:201B9C0012040004000400040004510464000004000400044404000400040004000465047D
:201BBC0000043504810464000504000483040004660400040004080409040A040B0401049E
:201BDC00176701005D6B01006DF20000793E010005600100A9E5000049080100BF5E010026
:201BFC00256001008D540100BB54010075430100794F0100FD67010055220100FD300100C4
:201C1C00591A0100B1220100DBFD0210815D010011DC0210F9F20000B9710100DD5701004D
:201C3C002D6E0100416E0100A9660100055F00001D9000000000000000000000000000001B
:201C5C002D680100656D0100F90B0100296D0100317401002B740100796D01000000000036
:201C7C00B9730100F90F0100DD13010021650100DDE90000DF6E010021C20000E15800006A
:201C9C0071F9000005610100000000009D260100CD64010055E10000000002000000020027
:201CBC000200020000000300040001000000020000000000000000000500010000000700ED
:201CDC00060001000000030007000800000000000F0001000100FF001000080000000000A7
:201CFC00180008000000000022000200000000008F0000008F0001008F0002008F00030042
:201D1C00900000018F00010190000002900000038F0001048F0000058F0008048F0000040A
:201D3C008A000006510000007F0001003F0004003F0002003F0001007F0002008F0002044C
:201D5C008F0001021404C0A0FE0000001404C0A00A0480A0090480A008400080FE000000C6
:201D7C0017000080150480801B2000801900008005200080042000800D0480800C4000801D
:201D9C000F2000800E2000800604808007048080FE00000038C40D00C80000008100000065
:201DBC0032000F0100C50D00900100004000000096000501952B0D00C800000022000000CF
:201DDC0032000F0200000000000000000000000000000000000000000000000000000000A4
:201DFC00000000007B7374617469632D696E7374616E63652D6E616D657D00C07B656D707A
:201E1C0074792D696E7374616E63652D6E616D657D00C0467B756E6B6E6F776E2D696E73E4
:201E3C0074616E63652D6E616D657D00352501001FF9021045F8021059F802106DF8021082
:201E5C0081F8021095F80210510501009D530100794201009B4B0100ED5D01007D6E01001A
:201E7C00A56201006D530100337101002D6B010095120100256C0100256F01009D7F05004F
:201E9C00156F010099730100F5730100EF73010000000000000000000000000000000000C8
:201EBC00000000000000000000000000ED700100DF700100C003000080070000000F0000FF
:201EDC00001E0000003C00000078000000F0000000E0010000C003000080070000000F00EA
:201EFC0000001E0000003C00000078000000F0000000F000000104000033333333333333AA
:201F1C003333333333333333330301464854657374000000000000000000000000000000A8
:201F3C000000000000000000000000000000000002000000020000000A0000000200000075
:201F5C00020001000000000000000000000000000000000000000000000000000000000062
:201F7C000E00000058010E4066010E404C010E400000EE03A4050000BC230000282100007E
:201F9C0000001800D1040100452D010054010E4056010E4004250000B17301001F7401009A
:201FBC006D50010041640100512A01005D64010051020100953A0100A17101000D9500008A
:201FDC0041000100211B0100C1730100C18200009992000037740100E131010065C00000DF
:201FFC003D740100E9ED0000440B00001C200000557001006570010085700100757001003A
:20201C002D540100355E0100355801003500000000B000401400000034000000FF00000094
:20203C00000000000D0CFFFF3840002020000000010300000000000015F9021001E6021098
:20205C002DDA021045E7021041D10210C9D30210A5DF02102DE4021061EA0210B942010029
:20207C000303001B5B324A1B5B32301B5B3F32356C001B5B324A1B5B32301B5B3F32356C9A
:20209C000000000000000000FFFFFFFFFFFFFFFF00000000000000000101010100C2010065
:2020BC000300000000000000BC0C0000D82000004B750100B5F50000E10C0100CD530100C7
:2020DC00115E010009580100310000004E42434E0000070005000000FFFFFFFFFFFFFFFFBC
:2020FC00FFFFFFFFFFFFFFFF010000000000000000000000000000000000000000000000CB
:20211C000000000000000000000000000044403C3834302C2824201C1814100C00000078D3
:20213C0074706C6864605C5854504C48FFFFFFFF0000000000000000000000003A013A01A9
:20215C00000000000000000000000000000000000000000000000000000000000000000063
:20217C00000000000000000000000000C42000002C2A0020040000000000000000000000E5
:20219C0020000000902200001800000004200000442A002004000000000000000000000083
:2021BC0014000000E42100001C0000001404C0A0FE0000001404C0A00A0480A0090480A085
:2021DC0008400080FE0000001C0000000000000000000000F82100000000000008000000E0
:2021FC0000000000F1430100E973010045B70000C90D0100917301009D0A010001000000B0
:20221C0040420F00010000000000000000000000000000000020004011000000FFFFFFFFA3
:20223C000700000000000000050400000000000000000580000006800000078000000000E0
:20225C000000000000000500BD00B700B100BC001C003000380008003801020001000100B3
:20227C0001000102030405060001000100010001020001021800000000000000000000000B
:20229C00A022000008000000000000004C290020302900200700000007000000FFFFFFFF40
:2022BC0000000000C9C80000316701000101010000000000000000000600000002000000CD
:2022DC0086000000820000000100000000000000000000000000010000000100001610169B
:2022FC000E18151C0212032418580302100258000200000000000000FFFFFFFF0000000053
:20231C00443C0020920900006C3C00209309000005000000D0070000C8000000FF0000005F
:20233C00000000000000000000000000000000000000000000000000000000000000000081
:20235C008837002040250000E437002042250000000600000008000000C01000000000009D
:20237C000200000000000000FFFFFFFF000000000000000020000000400000006000000083
:20239C0088B2240088130000100000000000000100008080000080840020808400408084AB
:2023BC000000000000000000701190008211A00100A6AAACA4A9A9A399B19ABCB6A83131C7
:2023DC0018191A22311C1E2031313431313117191A21241B1D1F313133310000FF00000015
:2023FC0000000000000100000C0E020B040B0A070800110F000120181A18182C34041E004C
:20241C00002200009441002058240000000000600000000200000000B41F0000A0420020D6
:20243C00FC240000FF0001000000000000000000DC1F0000C03100202C20000017090001E7
:20245C00A05A320000030000000000800020008000400080000000800004008000080080C5
:20247C0025DD021031C8021075DF021002040201010101090200000000BE040A00BE020810
:20249C000102000302000103FFFFFFFFFFFFFFFF3545251502030504000408100004081022
:2024BC0000000000010000003C41002093160000410000000200000074330020302200005D
:2024DC00E8030000000064004400000001000000FF00000000000000AB280100FB74010009
:2024FC000020050000400000000000002C9CFF40000000000800000000000000000000004C
:20251C0015680100855C010010040810181C10000810182004040810181C00000102030421
:20253C0000010509050106010000000010000000010000006D7401004F750100C70D0100D6
:18255C007374010011330100C5070100477501000A00000000000000A6
:202578002DE9F04FADF11C0D80B10169C14CC24DA06121B92868D0F84C058047A069416873
:202598002F68A1608068D7F80811086014F09DFF04460EF05DFD10B1CBA015F029F914F0BA
:2025B80035FB684614F0AAFC042069468DF80000002014F0ABFCD14FB968D1F804110860D1
:2025D800B868D0F80401006810B9C7A015F010F915F00AF915F004F907F0C6FF204654F0E0
:2025F800F7F813F0F3FF13F077FBB868D0F8D40090F843000CF0A2FBB868D0F858240021C5
:202618000120904713F0EEF90025BD48FE680570F068007807F1080628B9B868D0F85824A0
:202638002846014690470DF0EBFADFF8D8A2B64A07212B460AF1140013F0ACF9CA4C4FF41A
:202658008042CA4920784A6089460870BBE0E068410907D32E208DF8140005A815F0BCF8B0
:20267800CC480068410807D325208DF8140005A815F0B2F8C7480068810807D326208DF8C4
:20269800140005A815F0A8F8C2480068C10807D327208DF8140005A815F09EF8BD48006812
:2026B800010907D329208DF8140005A815F094F8B8480068C10909D38DF815502D208DF834
:2026D800140005A815F088F8B2480068010A09D38DF8155030208DF8140005A815F07CF85A
:2026F800AC480068410A09D38DF8155035208DF8140005A815F070F8A6480068C10A09D350
:202718008DF8155023208DF8140005A815F064F8A0480068810A09D38DF8155036208DF851
:20273800140005A815F058F89A480068010B09D38DF8155037208DF8140005A815F04CF869
:2027580094480068410B09D38DF8155038208DF8140005A815F040F88E480068C00B10D344
:20277800D9F80C0068B18046D8F810B0404615F02FF8404611F074FB5FEA0B08F4D1C9F86B
:202798000C503068D0F898000068B8B114F09DFE3168D1F898100A6804920D6054F018F88A
:2027B80031680498D1F898104860049815F014F83068D0F89800001D15F006F82846E06040
:2027D80014F0FEFF207872490B784BB1DFF8C881A8F1180818F8181F884203D05B1EF9D10E
:2027F800284608E0D8F80C004FF0FF3154F0F4FBD8F814000068E06014F0DEFF2078E1689F
:202818000FF0ECF814F061FE9AF801108AF801508A080CD2C9081AD353F0DAFFB868D0F8B2
:20283800582428460146904707F1080611E053F0CFFFF868C068007838B9B868D0F858241B
:2028580029460120904707F1080614F03EFE53F0BFFFE068800908D330683C300068001D7D
:2028780012F008FE0028049050D1E068000CFFF4EEAE11E01024002014010020D02909D12B
:202898008178E170C17861700179A17083686361C168A16113F0BAFB20780FF0CFFC002825
:2028B80004903FF4D4AE0178D029E7DA3168D1F898104860049814F08FFF3068D0F89800AC
:2028D800001D14F081FFE7E752616E646F6D5F736565644175746F6D617469632829206692
:2028F80061696C656400C04643727970746F206F70656E206661696C656400C00C010020F6
:20291800AF420020CC2700203F75010014F0DDFD3168CA6B117B491E117353F059FF04986C
:20293800017833688DF81410D3F89810486004984378EBB1DC2B0DD0DD2B0BD0E42B09D005
:20295800F32B07D0DE2B05D0DF2B03D0E82B18BFDB2B0FD114F02CFF9DF81400162809D1EF
:2029780004A814F031FF05E020010020A829002014F032FF9DF814103068162900F13C0056
:202998003FF46CAFC06D001D14F01EFF64E7C0465C1900202C01002080190020F1482DE92B
:2029B800F04F3CC8ADF1240D69463CC11DC881E81D00ED4DED4C009505F11006019604F136
:2029D8005407029704F1340003948046049004F17C008246059004F1180006900EF086FCE0
:2029F8008146E348C6608560E2480021302205460DF01EFFB9F10E0F0CBF30222822284624
:202A180039460BF0C5FDDC4F07F59071DB4B08780126C6F3000262F3C710087097F82A0154
:202A38000025A94669F3861087F82A0197F82A011822214666F3C71087F82A0197F82B01DE
:202A5800A7F8363140F0E00087F82B0107F134000BF09EFD97F840001822214666F3C7103B
:202A780087F8400007F14C000BF092FD97F8580007F1F4042022414666F3C71087F858000A
:202A980020460BF085FD97F80001C84668F3030087F8000197F8000166F3C71087F800017F
:202AB80097F8020166F3C30087F80201102587F80351A7F8049197F8070120F00F0040F0AC
:202AD800040087F8070197F807013022514666F3C71087F8070107F5A2700BF059FD97F82E
:202AF800500166F3C71087F8500197F8520168F3000087F85201A24B97F85201A24968F349
:202B1800410087F8520197F8520168F3820087F8520197F8520166F3C30087F8520197F89A
:202B3800520168F3041087F8520197F8520168F3451087F8520197F8520168F3861087F833
:202B5800520197F8520166F3C71087F8520197F8530168F3000087F8530197F8530166F3D9
:202B7800410087F8530197F8530166F3C30087F8530197F8530168F3041087F8530197F8A3
:202B9800530166F3451087F8530197F8530166F3861087F8530197F8530168F3C71087F80F
:202BB80053011868D0F80001C089A7F85C0197F85E0165F3050087F85E01B7F85E0169F388
:202BD8008A10A7F85E0197F85F016FF0030220F0F80040F0580087F85F016A4B87F86221CC
:202BF80097F86301042565F3030087F8630197F8630168F3041087F8630197F8630168F3D0
:202C1800461087F8630197F8630168F3C71087F863015E481C22C7F864310BF0B9FCC7F8B4
:202C3800804097F88800584920F00F0040F0030087F8880097F8880066F3C71087F888005D
:202C580097F88900032464F3030087F8890097F88C0066F3000087F88C0097F88C0068F3C6
:202C7800410087F88C0097F88C0066F3C30087F88C0097F88C0066F3041087F88C004FF4D8
:202C9800207AA7F890A06FF0520987F88D9097F8920064F3030087F8920097F8920068F355
:202CB800071087F8920097F893004FF4FA5B1C2265F3030087F8930007F19800C7F894B0DC
:202CD8000BF066FC3148C7F89C0097F8A40020F00F0040F0020087F8A40097F8A40066F378
:202CF800C71087F8A40097F8A50064F3030087F8A50097F8A80066F3000087F8A80097F8CA
:202D1800A80068F3410087F8A80097F8A80066F3C30087F8A80097F8A80066F3041087F893
:202D3800A800A7F8ACA087F8A99097F8AE0064F3030087F8AE0097F8AE0068F3071087F83E
:202D5800AE0097F8AF0065F3030087F8AF000848C7F8B0B00799016108F0AEFF09B0BDE872
:202D7800F08FC04608210000D022002060170000B0250020C0180020AC1700200080FFFFB6
:202D98001401002000C4226478170000281800202DE9F04FA94C2061A9492163A3A10978A7
:202DB800ADF1840D00260DF1320040220170A0A10DF132008DF8726012F06AF84FF0010B2C
:202DD8000BF10100CF4D8DF872002878012837D168684FF0FF3154F0FFF8E86B01282FD8FD
:202DF8000EF036F950BB062711F09AF85FEA000801D17F1EF8D1D5F83C909DF8723005EB7A
:202E18008907C7F854808BB1E86B342212FB03FA05EB8000C365504612F088FB64373860A2
:202E380060B13868314652460DF002FD09F10100E863686854F0CCF8474602E0D846FBE731
:202E58003746A76308A814F069F8DFF80483304608AA414608F048FEA064314608AA5846A8
:202E780008F042FE60644068007812F057FD58BB12F0CCFB206B38B302692AB307278DF87B
:202E980018700420ADF81A0006ABADF81C6093E8030090470520236B8DF818701A69ADF8A0
:202EB8001A0006ABADF81C6093E80300904706208DF8187006AB276BADF81A003A69ADF83C
:202ED8001C6093E803009047606C414614F089FA02A813F0EFFF584602A907F009FFE06309
:202EF80002A9304607F004FF4FF4FA71032220640FF0A4FCA06B814612F0FCFC002840F085
:202F1800A480944F3868002800F09F80286B4FF0FF3154F061F8D5F830C005F1F4084FF02E
:202F3800FF3E314632464046436833B9036823B9BEF1FF3F08BF964604E00368BB4200F01D
:202F58008180491C521C0830042AEDDBBEF1FF3F78D04FEACE0000EB0802C2F804900029AF
:202F780048F8007058DDDFF8F0C1DFF8F08101290FF2941E20D1624616755675286A1661AF
:202F980003681360C2602B6A90611A7A0C2012FB003282F808B01A7A12FB003256722A6A33
:202FB800137A13FB0022734653602A6A0346107A10FB03224346D3606246FA603B7A88003E
:202FD8004FF00C0C00EBC10013FB0C7383F808B08018876106613B7A067513FB0C735E72A2
:202FF8003B7A467513FB0C797346C9F804303B7A80F8216013FB0C734746DF600227584B35
:2030180080F820700129436244A7C76117461ABF387A401C032038722F62EF61387A401EAC
:203038006862304606F0CAF9286B0CE000C046C03135342053656E736F7200C0581C0020B2
:20305800540A0020604653F0C3FF04F14C0138A008F072F904F1500137A008F06DF9206BAC
:20307800002846D04769DFF8FC806FB1009441461EA80A68898802601EAD818095E80300C5
:203098005B463246B847206B002832D0026952B141461EA80B68898803601EAF818097E85C
:2030B80003009047206B20B3476917B307208DF810000625ADF812500CABADF8146004AADA
:2030D800009392E8030002233246ADF83020B847256BBDF83000EF69E08057B1BDF830001D
:2030F80004AE401CADF8300096E8030002220CABB847A06BE16C13A206F064FF21B0BDE89E
:20311800F08FC046A81200203C2020202020204241434B2020202020203E00C03C202020D1
:2031380020202048454C502020202020203E00C053746174757300C047656E65726963200F
:20315800436E740057616974696E672E2E2E00C0C561010030260020343D0020396C010041
:20317800D9A90000EE200000C7482DE9F84F0068DFF8B4A20C469046B830C169DFF8ACC227
:2031980091F88320BF499946012A00F08A80CA48BD4F04687868C068022301224FF0E046A0
:2031B800002503EA080B027016EA09060D7008BFBBF1000F32D14FF4803015EA090700EA63
:2031D800080008BF00281AD129464FF4003011EA090700EA080008BF00280CD14FF4800087
:2031F80011EA090100EA080008BF00280AD025710EF090FA06E0257110F072FF02E0257174
:2032180052F0F2FE20202F4600EA080017EA090708BF00282DD013F0F5F92AE0AE4991F944
:203238000000002803DD91F90000401E0870514691F90000002803DD91F90000401E087085
:203258004FF0807705EA080017EA090708BF00280CD0A24991F90000002803DD91F9000046
:20327800401E08706046027013F058FB25710EF051FA9AF9000058B1002E08BFBBF1000FC7
:2032980000F023819AF90000002800F31E810CE193487D4F05703868D0F85824294608468B
:2032B80012E1794A01232027002552688E4ED268DFF840B2137017EA09070D7005EA08010E
:2032D80008BF002966D12A464FF0E04702EA080017EA090708BF002839D18449DFF810C265
:2032F8004FF4860012EA090700EA080008BF002816D17C4812EA090700EA080008BF002868
:203318005BD006F12800B480B9F1000F80E8000308BFB8F1806F50D1088802284DD10EE0AD
:2033380006F12800B480B9F1000F80E8000308BFB8F5803F41D10888B0F5505F3DD1304651
:2033580080686746436938682146984735E0624991F900004FF0807702EA080217EA0907A7
:20337800A0F10100087008BF002A03D06046037013F0D4FA5A46B2F90000844201D10EF09C
:20339800C9F96FF001005146B08091F90000401E087012E06FF001015A4600681180017867
:2033B80059B155480078832802D0544981200870316911B128468847B480474FAB4602202D
:2033D8001BEA090300EA080008BF002851D04C49B1F8460143F20141814229D0C91C814262
:2033F80026D04749C98E43F604028A4220D0B6F9043097F900109C42A1F10101397002D06D
:20341800824220D11DE006F1280003C84FF482022C4610400C4008BF002802D10EF07AF9F0
:2034380011E052F0E1FD0EE0D4290020CD290020707897F90040401C7070601E38700EF02A
:2034580069F912F05BFC2E480F4BA0F8465118686FF00104D0F8B800B480017811B1294856
:20347800017809B913F05AFA9AF90000401E8AF8000097F9001009B9194805709AF9001054
:20349800E1B103E0CC2900201401002002224FF0E041104611EA090700EA080208BF002A8B
:2034B80013D09AF9000000280FDC17480068D0F84C05804709E0C046E03F002012480068D4
:2034D800D0F858242946284690470F484068C0680570BDE8F88FC046D5290020D6290020D1
:2034F800CA29002000000C8C10240020F2180020C425002014240020B3420020AE42002005
:20351800AC170020B042002014010020B0B50446BC480768ADF1480D002F00F0AC81207870
:20353800401E122800F2A781DFE810F06E0157013D01280120010901F600E800C800B70044
:20355800920067005D004C00A501340026001C0013007B6C002B00F08E810020A21C01464C
:20357800984788E1F86B002800F08581684621460BF0FCFEF96B7CE1386C002800F07B81E7
:203598006846002101220DF053F960788DF80000396C6EE1F86A002800F06D816846002150
:2035B8000E220DF045F9A11C684613F087F9A57BA1890022ADF80A1005B101228DF80C20E5
:2035D800F96A57E1B86B002800F055816846002102220DF02DF9A5788DF8015060788DF8C1
:2035F8000000B96B45E1786B002800F04481684621460BF0BBFE796B3BE1386B08B36846D4
:20361800002114220DF014F9A5788DF80150A3680193A289ADF80820A17B8DF80A10607814
:203638008DF80000E57B8DF80B50237C8DF80C3094F911208DF80D2061690491396B68462C
:2036580088476068002800F0168112F0DFFC12E1B86A002800F00F816846002124220DF060
:20367800E7F86078A11C8DF800000DF1020013F025F904F10C0103A813F020F9257EE08A42
:2036980004F119018DF818500B22ADF816000DF119000AF07DFFB96AEBE0786A002800F0B9
:2036B800EA806846002102220DF0C2F8A5788DF8015060788DF80000796ADAE0386A002827
:2036D80000F0D9806846002112220DF0B1F8658862796078ADF8025023798DF80520E11D05
:2036F8008DF80000A5798DF804300B220DF107008DF806500AF04CFF396ABAE0F86900283E
:2037180000F0B9806846002101220DF091F860788DF80000F969ACE0B86910B120460FF05E
:20373800DBFAA07820B9A069002800F0A48003E0A069002800F09F8010F092FB9BE078695A
:20375800002800F098806846002113220DF070F86D46A01C0168406829600B22686004F1C5
:203778000A0102A80AF014FF796982E03869002800F0818020460AF04FF97CE0F8680028E5
:2037980079D0684600210E220DF052F86078A11C8DF800000DF1020013F090F8A089ADF80F
:2037B8000C00F96865E0B868002864D06846002114220DF03DF8A01C01686D462960406883
:2037D8006860A07A0B2204F10B018DF808000DF109000AF0DDFEB9684BE0786800284AD0EA
:2037F8006846002110220DF023F860786588211D8DF800000B22ADF8025001A80AF0C8FE83
:20381800796836E07C2600203868A0B36846002119220DF00DF8A01C01686D4629604068CF
:203838006860A07A410824BF01218DF80810810824BF01218DF80910C10824BF01218DF824
:203858000A10010924BF01218DF80B10C10924BF01218DF80C1030F07F001CBF01208DF8F7
:203878000D000B220DF10E0004F10B010AF090FE39686846884712B0B0BD70472DE9F04314
:20389800071CADF1240D00F09581FE6B002E00F09181B7F84030002B00F08C81307817F188
:2038B80030054FF0000603D097F83810052902D0002E00F07F81C14CA11CDFF804930D78F1
:2038D800401E00F0B980801E00F09F80DFF8F482C01E76D0001F31D0801F14D0801E40F0BA
:2038F8006981012B40F06681132544468DF81C50083420788DF81D00022207AB2846394697
:2039180006F066F856E1012B40F0548113F01EFC032804D013F01AFC042840F04B81042052
:203938004B46112505268DF8210003F134078DF8205003228DF8226008ABDFE7002D00F0F1
:2039580039816846314604220CF072FFB7F840002278032840F02E81F86B401C13F04AFC42
:203978004B4603F194052988012A01F10101298009D01989421A022A05DBB3F896108918C3
:20399800491EA3F8961026704446A778188140080CD2012F00F00E810120A070206C12F0FB
:2039B80060FA206C642111F0D1F803E1002F00F00181206CA67012F054FA206C10F048FD72
:2039D800F8E0012B40F0F68013F0C0FB032804D013F0BCFB042840F0ED8044460725A17816
:2039F800206C8DF81C5041B90121A17012F039FA206C642111F0AAF805E0A67012F031FAF4
:203A1800206C10F025FDA07874E7012B40F0D28013F09CFB032804D013F098FB042840F034
:203A3800C9804B46B3F87400042501228DF81C50401CA3F8740060E7684631460C220CF037
:203A5800F7FEB7F840000B2840F08D80FC6B14F8010B89F84000204613F0CCFBA41C034681
:203A7800204613F090F80546201D13F08CF88046387A4C4689F83C00022806D0396804F1D1
:203A9800340001607A68426001E03888A08603F00101980828BF41F00201D80828BF41F086
:203AB8000401980928BF41F02001D80928BF41F04001180928BF41F00801580928BF41F01A
:203AD8001001180B28BF41F40061A4F842108B4218BF0226B5F57A7FADF8021030D33A4884
:203AF800A8422DD3656413F05FFE814613F05CFE00EB092913F058FE00EB0920B0FBF5F15C
:203B18006943401A0A3011F01DFBDFF8C0901F2089F80000D9F8100013F042FE2C49D9F8E3
:203B3800100009684FF47A726B1EB2FBF1F189B2594313F031FED9F8100053F039FA00E065
:203B58000226606CB8F57A7F019008D342F21070404504D3C4F8488013F080F800E0022630
:203B7800A06C029001E04C46012602258DF8016068468DF800500FF029FD03AE0DF10D0084
:203B98009DF80110357013F02FFBBDF8021013F02BFB019910F0E2FD029910F0DFFD394636
:203BB8000D222846334605F013FFB4F87A00401CA4F87A0009B0BDE8F083C046C01E002063
:203BD800B81F0020581C0020407E0500DC3900206C2500002DE9F04FCB4C60692589216A4B
:203BF800A689806DADF1240D2A46891908310AF0CFFC7619B0B26669B16D4919C34DB1654C
:203C18002968D1F8D41091F88370216A0B1808331B780DF11E021370DFF8F882022F00F142
:203C3800010080B208D141180A7A66694346591C0A70216A401C80B20A180832126802A9A2
:203C5800001D0A6080B2A081042102A812F02EFB0290034613F0D4F8F063184612F08CFC93
:203C7800A6F84000EA2011F043F8A9484FF0020B022F80F800B00BD168684069007838B1BC
:203C98004146087810B94878FF2801D00420E0706769E078397C084338749DF91E0013F085
:203CB8003CFC87F8460007F17406BE6539899DF91E007B6887F84800B7F85C004FF00008E8
:203CD800401AC01801467860B88987F84780820A18D2020926D310F0070F07D000F0070096
:203CF800032812BF081C7868401C17E07968C87800F00702401000F0380000EB4200401842
:203D1800001D0BE02868D0F80813384688476769786E10B1B7F8680090B178687861B889FA
:203D3800000918D297F8600020B32868D0F80C13384688476769F86CE0B1B7F85000C8B9AD
:203D58002868D0F8541204F114008847404660610DF0E0FCD4E02868D0F8B4143846884774
:203D7800787067697E78B86978651EB1F22010F0BFFF67692E68D6F8B8100878002800F04C
:203D9800B780BA89DFF890A1089202F00702022A68D16378002B65D17B78002B62D1616938
:203DB8008DF81F800DF11600283113F03DF8616928314F6803A847600E8906810A68026004
:203DD800574607F110022B681088401C1080D3F8B8006169436A486E0DF11F02042198473A
:203DF80004F1140938B92868006C006818B19DF81F1080F86810666996F83000022813D12C
:203E18002868D9F80030D0F8D4705A4607F1200103F1280011F0A8FF30B907F116010DF17A
:203E3800160013F001F866693C480078862809D1BAF81200401CAAF81200B08900F01000F8
:203E58000EF020FF2968B8310A68107830B1976C27B16069394688472968B831D1F89C11F6
:203E7800484648E02E4A1378002B3AD0089AC2F30132022A35D1787800287FF469AF69680C
:203E98009DF81E00896853460870E6786769988A002E07F1280207F11C0C00F10100988289
:203EB8000CBF414608212E68D6F8B8000378FBB11C4B404618600091CDF804C0D6F8D4000B
:203ED800117AD6F87863C38C0D20B04710B90EF089FC01E012F096FB2E68D6F8B810676967
:203EF800087828B1896C19B1384688472E686769D6F85812384688474046606112F0BAFB5C
:203F180009B0BDE8F08FC046D03F002014010020AE4200206425002044280020B3420020E8
:203F3800B0420020882900202DE9FE4F0090B74F01913868DFF8DCA2DFF8DC82B74D029239
:203F58004030D0F89410DFF8D89291F88320B0499B46012A00F084807A68D26801230024A3
:203F7800137056460C70036834701E6816B9D0F80C05804702984FF0E24616EA0B0604EA8A
:203F9800000008BF00284ED10299A24608201AEA0B0600EA010008BF00283DD0464696F939
:203FB8000000401E3070B5F8D60042F20146864202D0311D81420DD1484600680199826CE6
:203FD8000098904730B10088B5F8D61042F6014282420BD1B5F86600B0F5105F21D1A96F12
:203FF80048460C30016010F0D3FC2EE0361D8E4214BFE1201C200AF067FB98F9000028B1A8
:2040180098F90000002800F3FB80EAE03868D0F8582421462046EEE0464696F90000401E9F
:2040380030701D200FE0464696F900003D68401E3070286C006840680078800902D211F064
:20405800F9FC02E0E9200AF03FFB98F90000002800F0CC8098F90000002800F3D180C0E0A2
:204078007A68D2680123137000240C7001680E6816B9D0F80C058047484600680199826CF9
:20409800009890476749029ADFF89C910B8814EA0B064FF0020606EA020108BF002931D17B
:2040B80021464FF0E246114016EA0B0608BF002919D14FF486012026114016EA0B0608BFA5
:2040D80000290AD1002874D0008840F6030181426FD01D200AF0F8FA6BE0019900985B464D
:2040F800FFF742F865E0464696F900004D46401E30702878862802D011F09CFC59E00FF096
:20411800EFFF56E0464696F90010DFF820C15246491E317043F20841994214700AD0B5F87C
:204138007E2001F1020E9E4504D0914202D07146914212D178B1008843F6030181420AD073
:2041580007F0A0FE96F9000000284FD096F90000002855DC45E0B5F87E20B5F8F61043F698
:20417800040088422ED090422CD098422AD0B5F84E20904226D0B1F5505F05D0080B16D3B0
:204198001D200AF0A1FA12E0294800684E4600F5C070CCF814003078862802D010F0F8FBBE
:2041B80005E001990098029A5B460FF059F812F0B5FB464696F90000C0B196F9000000284E
:2041D8001EDC0EE01B480078022816D0032814D007F058FE96F9000040B196F90000002861
:2041F8000EDC3868D0F84C05804709E03868D0F8582420460146904702E020460AF064FA4C
:204218007868C0680470BDE8FE8FC04614010020CC290020CB290020D4290020AC17002074
:204238001824002046180020B3420020102400202801002145280020F0B500218022ADF146
:20425800840D68460CF0F4FAF22020A913F013F9BA4DBDF8800020A9A5F88800F32013F0F3
:204278000AF9BDF880000DF10101A5F88A00E22013F0FFF8B5F84240ADF80A40600806D36C
:2042980005F12001096803A80160BDF80A40A00805D3A91D098804A80180BDF80A40E00888
:2042B80007D305F1240109680DF112000160BDF80A40200908D30DF1160005F16C01302243
:2042D8000AF066F9BDF80A40600905D3A86C6F6C1390BDF80A401297200B05D3A91C09889A
:2042F8001FA80180BDF80A40A00906D305F12801096814A80160BDF80A40E1094FEAA4105A
:2043180009D305F12C010A6815A8026049684160BDF80A40A01167104FEAA40CE610231169
:20433800E212611164082CBF0F240B247F0824BFA41CA4B25FEA5C0724BF241DA4B2760822
:2043580024BF3034A4B25B0824BF0834A4B2520824BFA41CA4B2490824BF241DA4B240086A
:2043780024BF0834A4B220460AF074FF071C00F0E18005260DF1010100F8016B0A68026006
:2043980049684160BDF80A10083012F02DFFBDF80A10844648080BD3BDF80C10604612F03E
:2043B80023FFBDF80E1012F01FFFBDF80A108446880807D3BDF81010604612F015FFBDF887
:2043D8000A108446C8080BD3BDF81210604612F00BFFBDF8141012F007FFBDF80A10844630
:2043F800080B07D3BDF87C10604612F0FDFE8446BDF80A10504AD388080961D3BDF8161026
:20441800604612F0F1FEBDF8181012F0EDFEBDF81A1012F0E9FEBDF81C1012F0E5FEBDF8E0
:204438001E1012F0E1FEBDF8201012F0DDFEBDF8221012F0D9FEBDF8241012F0D5FEBDF860
:20445800261012F0D1FEBDF8281012F0CDFEBDF82A1012F0C9FEBDF82C1012F0C5FEBDF860
:204478002E1012F0C1FEBDF8301012F0BDFEBDF8321012F0B9FEBDF8341012F0B5FE1946B6
:2044980012F0B2FE117812F0AFFEBDF83A1012F0ABFEBDF83C1012F0A7FEBDF83E1012F0C3
:2044B800A3FEBDF8401012F09FFEBDF8421012F09BFEBDF8441012F097FEBDF80A108446C4
:2044D800480909D31299604610F048F9139910F045F9BDF80A10844688090BD39DED140A6B
:2044F800BCEEC00A604610EE101A10F037F9BDF80A108446C80913D3BDF85410604612F021
:2045180073FEBDF8561012F06FFEBDF8581012F06BFE9DF85A1000F8011B9DF85B1001707C
:2045380005F13401224630463B4605F051FA38460FF096FC21B0F0BD581C0020B81F002081
:204558002DE9F04FAE4D00240C22ADF14C0D214605F1400004940CF06BF9B5F8421040F6E0
:204578007F000843A5F8420040F6B83068644FF4FA60A8640BF0CCFB686108F05FFAA14921
:2045980005F19C0008606869FEF702FCAB48696941609D49416108F0EFF9FFF76EF99B4B34
:2045B800AB4618789A4D012815D005F14C0220460AE089184968401CC0B20C602EE089189E
:2045D8004968401CC0B20C60C1008E187668002EF5D10120187005F15C00074612F0C6FC93
:2045F8004FF001098B4985F864900EC905F1300080E80E00A04685F8328085F8318085F8E2
:20461800378085F8308008F0B7F9FFF736F9824E3078012809D005F13C024046C1008B1839
:204638005B68002BC5D186F80090384612F09EFC7A4985F864904EC905F16C0080E84E0053
:204658006E4800EE100A85ED080AAC6785ED090A0FF06AF905F1280012F020FE10F0ECF9E3
:204678007048724F6E4D704E28603B686E6058084DD26F4905F15C00342209F089FF6D4E1C
:20469800C6F8DF4FC6F8C34FC6F8C74FC6F8CB4FC6F8CF4FFF20C6F8DB0FC6F8DB4F0523E7
:2046B800C6F8E33F0622C6F8E72F4FF0070AC6F8EB9F0221C6F8EF1F0323C6F8F33F042243
:2046D800C6F8F72F5C48C6F8FBAFE96EC6F8FF4FB5F86A20C6F8DF9F09F05AFFE86F3C60B7
:2046F80080472D21504646F8259C10F0EBFD386840F00100386010F063FB12F09FFE12F0A8
:20471800A6FE10F077FB12F09CFE12F0ACFE11F03DFC0AF0CDFFE820494612F0CDFCE720BA
:20473800092112F0C9FC464D05F13000006830B3476927B34FF0070A8DF808A00426ADF896
:204758000A6004A8ADF80C8002AB009093E8030042463346B847002804BF049819300FD090
:20477800286B8DF808A002AFADF80A60C569ADF80C8097E803000594324605ABA84740468A
:20479800049041460BF006FBE020414612F094FC4F20032112F090FC5720052112F08CFC89
:2047B8004E20052112F088FC5920052112F084FC11F0C6FE0DF1260006A90DF0C9FD012822
:2047D80019D10DF13200414611220CF031F89DF824104C4601F0070004FA00F00DEBE101AD
:2047F80081F832000DF1320011F0D8FD0BF10400494612F0D3F913B0BDE8F08F00FF7F47E7
:20481800B81F00207C260020A53B0100C52A00205422002028240000C72A00206C23000055
:204838003C21002085720100556A010000100E40801F000045500C4000000E40DC390020CA
:20485800581C00202DE9F0410646BA4C2DED038A206806F0010106F002070F43ADF10C0DE4
:2048780000F0EA8028B904F15C01002006F0B8F92060A768002F40F0DF80276D04F14C05A5
:204898003B68D5F80080002B40F0D28069680E2208602846802110F03EF9002800F0C58057
:2048B80040F6B83010F042FB94F8301094F8310094F832300F22084343EA00012846ADF851
:2048D800001010F028F978B394F8331094F8340094F836300843184394F837300E2243EAED
:2048F8000001ADF80010284610F015F9E0B194F835102846072281F0FF01ADF8001010F04F
:204918000AF988B12846694604220FF049FA58B1A06B48B10146796098F8040010F06AFB98
:2049380098F804000EF02CFAA06BA560002867D094ED050AD4ED068A794800EE900AB4EE6C
:20495800E00AF1EE10FAC8BFB0EE600A00EE900AF4EEE08AF1EE10FAC8BFF0EE608A714818
:2049780000EE900AB4EEE00AF1EE10FA38BFB0EE600A00EE900AF4EEE08AF1EE10FA38BF6F
:20499800F0EE608A684F09EE107A684808EE100AF0EE480A49EE000ABDEEE00A10EE100A21
:2049B8000B2281B2284610F0B6F809EE288ABDEEC80A10EE100A0A2281B2284610F0ABF8B5
:2049D800D4ED040A5A4900EE101A60EE200AFDEEE00A10EE901AD4ED030AA06820EE200A32
:2049F8000FB2BDEEC00A0D2210EE101A054689B210F091F80C22B9B2284610F08CF8A5686B
:204A180028460DF102010F220FF0CAF958B1BDF8020040F00100ADF80200BDF802100F228C
:204A3800284610F078F8206806E00020386000E00020A06020460068F1085AD328B904F190
:204A58005C01002006F0CCF82060E769002F50D1256C04F13C07B4F8702094F872E094F878
:204A780076C0B4F874102B68D7F80080002B3ED17B681860B4F86C301A434EEA02004CEA2C
:204A980000000122014338460EF092FA00282BD0A06F70B16860B4F86E0028B10146022216
:204AB80038460EF085FAF8B198F80400696810F0A1FAE761EFB194ED080AD4ED090A38466D
:204AD80004F0B4FD0021E069ADF8041005466968496871B101A901220DF04EFD48B1286869
:204AF80000790EF04DF904E00020286000E00020E061300901D311F049FA70090BD36068A4
:204B180048B904F12805284612F0C8FB002029460FF0E6F8606003B0BDEC038ABDE8F081FC
:204B380052B8F842000020C20D98C63F000020420AD72340542200202DE9F84F07469A4DC0
:204B58009A4C28684030D0F89410267891F883B026B1D0F80C0580472868403001680E683B
:204B780016B9D0F80C058047A1460120904C89F80000012F677040F2AF80DFF83882DFF879
:204B980038A2BF1E54D07F1E3CD07F1E00F0C0807F1E21D07F1E40F0B6802968096C0968A4
:204BB80091F86D20628191F86E70002F06BFE070071CE7706868406856460178307810FB7F
:204BD80001F0784381004046C16690F8701021F00F0141F0030156E0BBF1010F40F0AA8039
:204BF8002968D1F8D420096C09680020C98A6071C90934BF92F8251092F84E10A17012F0A6
:204C18003DFA97E00026BBF1010F66710DD12968D1F8D40090F85300D1F83C148847C07B0B
:204C3800022802D1304609F0E5F90FF0B9FA81E062482F680668D7F8D40090F88300012879
:204C580024D09AF800008700F06B8047DAF804103C23401AB0FBF7F1B1FBF3F25A43891A0A
:204C7800227812FB03F0401A3C301FFA80FAF06B804707FB0A014046C16690F8701021F034
:204C98000F0141F0020180F8701053E09AF800008700F06B8047DAF804103C23401AB0FB08
:204CB800F7F1B1FBF3F25A43891A227812FB03F0401A3C301FFA80FAF06B804707FB0A0101
:204CD8004046C0F8FC1090F8001121F00F0141F0020180F800112DE0002029686071D1F8A3
:204CF800D400096C0968C98AC90934BF90F8251090F84E10A170B7B9C078A0B10229C4BF6F
:204D18000220A0700FE02868D0F84C05804711E02868006C006890F86910617190F86A00D0
:204D3800A0700027A77152F0FFFF2868006C0068002836D02248007898B92868403001689E
:204D58000F682FB9D0F80C0580472868006C07687A686178107800F0200020719078E07194
:204D780000E06178032903D0022918BF062918D112F0ABFB617802290CD01249097811B91B
:204D98001149097831B1022189F8001051F020FDBDE8F88F832189F8001051F019FD0BF079
:204DB8000BFCBDE8F88FC04614010020B342002044280020AC170020CC270020182400207A
:204DD8004F3B0020AE420020B04200202DE9FE4F8B46054612F079FB944C012D029000F06A
:204DF800E08020460068D0F838038047002800F0D3800EF065F8002800F0CE80214649685F
:204E1800DFF840A28969DAF808000F783C30002F40F0C280864C0068257880476168E268B0
:204E3800AF00401AB0FBF7F6A06890460027B946114646454B4673EB090301DA884206D855
:204E580039464A4686428A4140DA024600E039461046EB172A46801BB94111F0D7FD064659
:204E7800794800680F46C18A00694018643080464FF00001B6EB080677EB09077042B94129
:204E980024DA12F057F902464B46394630460CF0BDF90F4606464FF000017042B94115DAAE
:204EB80011F02DFC0546206912F040F810B1206912F0F5FA284611F045FE2069314612F0B3
:204ED800EAFA206912F0E9FA002000E0012059490870884698F8000000285DD15348006876
:204EF800D0F894000078002739460CF0A9FD00B10127381C4DD14D480068D0F8D4004B4E01
:204F180090F88370706880690078002841D1DAF80800494C436C606902216A4698479DF85D
:204F38000000002835D0BBF1010F4FF0010921D0424EDAF80820606996F9001011F1020F31
:204F580006D0926B96F900109047DAF8082060693B4D95F9001011F1020F06D0926B95F993
:204F780000109047DAF8082060696FF001012970317002E0DAF8082060692C494968896917
:204F980081F80090D1698847012F04BF00208AF80000002088F80000029851F019FCBDE81D
:204FB800FE8F2068D0F89400007801210CF048FD029851F00DFC606880690078012819D16D
:204FD80011F0C4F860B1606880690178012911D10021BBF1010F01700CD011F0C3FC09E0E2
:204FF80012F073FA6168896902220A7051F0F0FB0BF022FA11F0AAF8B0B960680C30C16855
:205018000978022909D101680F7837B12068D0F84C058047241D20680C3001680F781FB9E5
:20503800C16808780228FCD0BDE8FE8F14010020CC270020B1420020B0250020C829002026
:20505800C929002010240020C42500202DE9FE4F8A46934680460021022268460BF0E8FB26
:20507800844F38798DF8008028B107F1700012F067F800203871B7F95A405FEA080007F191
:2050980070054FF0000600F0A2800D3800F0A28072386AD07B38012840F29C80801E00F039
:2050B8009480401E00F08A80401E00F08380401E79D0B8F1300FC0F28D80B8F13A0F07DBF9
:2050D800B8F1600F40F38680B8F1670F80F282800321601E90FBF1F094FBF1F3201A401EBB
:2050F800C0B24FEA600903FB01F0241A012C10D0022C1ED115F8094068463146102224F06C
:205118000F0405F8094004F0C5FE044305F809400FE015F809003146102200F00F000446E3
:2051380005F80900684604F0B5FE44EA001005F809004C4650482A5DF96C005D02EA000950
:20515800B86B4A4503D138A204F03CFF04E037A204F038FF05F8049097F85A0001213222D0
:205178000B4611F0EEF8044621E00321601E002C90FBF1F0A4EB0000A0F10100C0B24FEA8E
:20519800600227DD94FBF1F04843201A022805D0012813D1A85C40F0F00002E0A85C40F016
:2051B8000F00A8540AE0284611F0F8F80124A7F85A400FE00124A7F85A4008E00121E0B23C
:2051D80032220B4611F0AEF8CDE7E0B2C6E7284611F0B6FF112715F8010B01A902220EF037
:2051F80015FBDAF800001EA1098880190180DAF80000731CD9B2401801A910F0B7FCF31C9B
:205218007F1EDEB2E7D1B8F1000F0BD0DAF8080014A10F2209F0BCF9641CABF8024001200A
:20523800ABF80000BDE8FE8F00C046C0496E76616C696420696E7075742E204F6E6C792094
:2052580075706461746564207769746820737570706F72746564206368616E6E656C730001
:205278002000C04620202020204348414E204D41534B00C0581C0020F42000002DE9F04F2D
:205298007A4CA068416EADF12C0D02A88847DFF8E0A1DFF8E0B19AF9000038B1594691F9C4
:2052B8000000002818BF002040F0DC8012F00DF9DFF8C4910A9099F80000800806D27D20CF
:2052D800002107F0BFFE0025079001E00025079502958DF80C50059503208DF81800DFF8DA
:2052F8009C81C8F87C51A8F8765198F88F7198F88011634B012665F3030166F3000788F8C3
:20531800801198F8801188F88F7166F3C71188F8801198F88F1166F3410188F88F1198F886
:205338008F1165F3820188F88F1198F88F1165F3C30188F88F1198F88F1165F3041188F831
:205358008F1198F88F1160F3461188F88F111868D0F8282408F5C871F420904749480778D6
:205378009FB94846A768007880090FD3F86B8047C8F87C0198F8801121F00F0141F0020160
:2053980088F880118DF80C600290A7683F4A3E484FF080738DE80C003F6D3D4B006808F5F7
:2053B800BA79494602AAB8470028608006D5022041F288310CF0DAFB2E464FE0594691F9DA
:2053D8000000344F401C087097F90000401C38709AF90000C4F80C902946401C8AF8000092
:2053F80002200CF0C3FB264F26483968057001F1AC021068077807B18025B4F84C00176855
:205418004FF67F7303401D432843A4F84C0098F88C21387860F3C71288F88C21D1F8D40064
:20543800C28CA4F85A20428D00F14403A4F858201A6804F14F052A6058686860D1F8D4005B
:20545800C18CA8F8A611418D00F14407A8F8A4113A6808F5CE742260786860600A9851F04B
:20547800B7F930460BB0BDE8F08FC04610240020D6290020D5290020AF420020AC17002084
:2054980014010020CD290020C42500202000430081310000D42900202DE9F04F824C4FF00C
:2054B800FF0A00254FF0100BADF1240D84F834A004F1300984F832A065E00C2015FB00969A
:2054D800E068690306AA042311F010FF06F116079DF818009DF8193038700698F375C0F319
:2054F8008541032903D09621B1EB106F38D1C0F30140F8703878FF2830D0FE282ED07E28F7
:205518002CD007A80EF0E0FFE06869034FF088524FF4005311F0EAFE64484FF4005650F812
:20553800041D361FB6B2B1F1FF3F06F1885201D1032EF4D810684FF00108414600F0FF03BC
:20555800FF2B18BF8846491C000A0529F6DB1060079811F03BF94644FE8001E0A7F806B074
:2055780038787C280BD0782809D0702804D0FE2808BF84F8325004E084F8345001E084F8D3
:2055980033506D1CEDB2E078A84296DC94F83310FF2920D194F83420FF2A15D194F83220DF
:2055B8000025FF2A18D0521C92FBF0F14143521A91B28A0002EBC1024A44978B002F08BFAE
:2055D80084F832A003D00A4684F833200225214691F8331000E00125FF2910D1002684F868
:2055F8003360304607F050FB6178084360707E2130460FF017FD2146E07891F8331094F815
:205618003220FF2A14D1491C91FBF0F24243891AC8B284F8320007F037FB617808436070D2
:2056380094F83200FE210FF0FDFC204690F8331084F8311094F8332010462F46810001EB78
:20565800C0014944898BA570781EE18602D0401E23D025E0172923D91046C91F01AA89B236
:2056780008F0ACFE9DF80F00C00816D300200090BDF81220E18E94F833000323891AC91FA5
:2056980001AA89B205F0D8FE50B9BDF8101039B19DF814000DF000FD02E0002004F0B6FD2D
:2056B80009B0BDE8F08FC046B0230020002000112DE9F04F814DA868416EADF12C0D02A868
:2056D8008847A8467E4C7F4DA178606902290FD170B1002007F09AFFD8F808004168606957
:2056F8008847281D0068806901210170002060614FF0010A002684F802A00028059630D167
:205718000BF0F4FDD8B10BF0F1FD012817D00BF0EDFD052813D00BF0E9FD0C280FD00BF01F
:20573800E5FD0D280BD00BF0E1FD0B2807D00BF0DDFD0E2803D02868D0F84C058047D8F85E
:20575800080000F1200130B92868D0F84C058047D8F808102031096804F120008847514897
:20577800E06310F0A7FA2968D1F8D40090F85300D1F83C14884707462868D0F8D40090F93A
:2057980042000CF03FFCB0F1FF3F05D0010828BF4FF6FF704449088038897968DFF80C91F5
:2057B8003B6832464FF47A7BA9F81661401EC9F81821414303EB5100B0FBFBF0A9F83401DF
:2057D80099F821016AF3030089F8210199F820016AF3C71089F820012868D0F8C40380478D
:2057F800F8B9B88932496F68BBFBF0F0C0B208707968BBFBF0F008702868D0F8D40090F82A
:205818005300022806D00FF059FA032809D105215C2001E00221A820264A11706968096825
:2058380008706769D8F80860A168DFF88CB03FB3002007F0EBFE2A68D8F808106069D2F8B5
:20585800D420637892F853200F4693420AD0496888476868806980F800A0D8F80800A1682E
:2058780006680EE0022100228DE806003F6D09F58A76002302AA3146B847C8F80C6008E0F1
:20589800366809F58A7904F1200358464A46B04760612868D0F8D40090F853000BB06070C1
:2058B800BDE8F08F54F10080DA180020AC170020CC27002044280020B835002010240020F2
:2058D800B0250020140100202DE9FE4F9B4615468946824611F0F9FD7B49019008680CAFD9
:2058F800504508BF48687B4C6FF0010828B1B03011F01CFB002840F0D68010F081F9061C3A
:2059180000F0DB8004F5C07011F0C9FD0023B4F9A800C6F80C90401C86F832306FF31F3075
:20593800A4F8A800C6F808B0B4F8A80030866748C6F810A097E80C0020210027B846194024
:20595800104006F1180383E80300424686F8332006F1200383E88001E8683064287C86F8FA
:20597800440028687063287986F83800A868F0636869B064A869F064287F86F85000687F08
:2059980086F851002F7C27B9EF6817B1012086F844002F795FB999F80C0000F00F0002280D
:2059B80005D1012086F83800D9F808007063484608274568002D18BF002F70D100886FF3AE
:2059D8000900B0F5305F18BF022506D196F83300082540F0100086F8330006F1180090E837
:2059F8000C00414606F1180745EA0200194387E80300D4F8CC00824507D194F8D00041080B
:205A180024BF00F0FE0084F8D00031480768002F39D004F194000090D4F89C10D4F8A02014
:205A380004F18C052B463046B84710F1030F10D0B6F93010B4F9A820914207D0B4F9A8107C
:205A580001F6FF716FF31F31A4F8A81010F1020F1BD010F1030F18D096F83300B6F93080A9
:205A780040F0800086F8330000278AF8F4702868864205D0F068007B00F00F0002281CD18A
:205A98000CF010F819E06FF00200B4F9A810804601F6FF716FF31F31A4F8A81005E07F1E76
:205AB8002846FFB285E76FF0020894F8D00040F0040084F8D000C4F8CCA0019850F088FE77
:205AD8004046BDE8FE8FC0467C2B0020FFEFFF9FF4240000D02A00202DE9F04F734C724F96
:205AF800E06807F5A271ADF12C0D814207D1704890F90000002818BF002040F0D18011F0E3
:205B1800E4FC0025DFF8CC810A90D8F80000A7F84651D0F8B8000078002807BF4FF4860AEB
:205B3800AB466EA090E8000CA068416E02A888470320604E8DF8180030780595800807D289
:205B58007D20294607F07EFA8DF81850079000E00795C7F84C51584B97F85001574AC7F873
:205B7800643165F3030087F85001E3685069B44607F1340607F134019E420CD0B7F8442021
:205B9800B0F840309A4206D1B7F84220C38F9A4208BF4F4914D04E4EFD86494BBE630122A9
:205BB8001A7097F8412022F00F0242F0020287F84120FD6397F8402065F3030287F840208F
:205BD800DFF8009199F800700E46FFB9D8F80010D1F8B8100F781FB99CF80010890915D34A
:205BF80039490F7837F07F0710D1A068C06B8047B060307B012720F00F0040F00200307325
:205C1800B0688DF80C702D4B02905869A1680F6D2E4B02AA8DE8000C3146B84700286080DF
:205C380009D50A9850F0D4FD022041F288310BF09DFF284634E01E49274F91F90000244EBB
:205C5800401C087097F90000E6602946401C387002200BF08BFFD8F80000AC3001680F78CC
:205C780089F8005007B18025B4F84C10806A4FF67F720A4015432943A4F84C10C18CA4F8C7
:205C98005A10418D00F14407A4F85810396804F14F063160786870600A9850F099FD0120AF
:205CB8000BB0BDE8F08FC046AC17002010240020D5290020AF42002000C42264B025002042
:205CD800CC290020CD290020B342002081310000F018002014010020D429002000004F8C65
:205CF800200000012DE9F0470646F08917468946ADF1280DC01D80B205460BF02DFB7A4C17
:205D1800FF280BD1284604F081FA854204DD641C207800B90520E3E0012000E00020617830
:205D3800D9B917B1022F18D1B8B1307A8DF80C00F788ADF80A70B588ADF8085000230093A5
:205D5800E18E94F8330001AA032305F075FB9DF814003074BDF81070B78194F83310E58ECB
:205D7800E06806AA04238846490311F0BFFA069800F0FF0100F0FF007E2806D140467C21FB
:205D98000FF050F9069901F0FF017C2940F0A580F08942F20102C11D8FB2E9198A4240F349
:205DB8009A80F188327AC1F301238DF81D10B18843EA82038DF81C308A1006468DF81E209D
:205DD8000423C0F3851201F0030142EA81128DF81F2010FB03F1F21D01F0FC01731990B2F8
:205DF8008DF820101FFA83FA0D282BDB48463146002211F0C3F90246052107A811F0BEF94C
:205E18009DF82010334600F03F064A4641EAA011B0008DF8201040F0020096268DF8210092
:205E380029468DF8226040460DF01CFB0646514607AA0723404666700DF014FB30436070D1
:205E58004DD135E004F124004946324608F0A0FB07A90A68301900F1240948460979026049
:205E7800731D0171002204F1240099B211F086F99DF82010962300F03F068DF8223041EA4D
:205E9800A011B0008DF820103B4640F0020007AE49468DF821003268B0790A60B2888871D7
:205EB80040468A8004F1240229460DF0DBFA6070E18EED194FEA8806AAB2C919E18606EB3C
:205ED800C8010919A1F84C2048B1404651460DF0E3F8607803E0052000E001206070C0B2A9
:205EF8000AB0BDE8F087C046B02300202DE9F047DFF8B4910E46D9F808101F46154604460B
:205F1800ADF1300DBEB1B5B130784FF0010808FA00F001420FD01046002111F0E0FAA5605E
:205F3800666011F0D2FA614D82462878022804DB504650F04DFC0020B2E000286CD102F06F
:205F580043F85B495B4E086840F00200086008A8C9F8006011F042F8574E5849707808AAAB
:205F78000A9005F1D4000CF0E5FD554905F5847008AA0CF0DFFD08A810F0E8FF192108AB2D
:205F98003078504A099005F154000EF0A9F94E4A05F170001A2108AB0EF0A2F94B490022E9
:205FB80005F59E7013460DF0BBFE4949002205F5C07013460DF0B4FE46480068C0F3814062
:205FD80030B1454A05F12800042100230FF0E2FCB078012802D10E2007F0ACF905F194007E
:205FF80010F046FE05F18C0010F042FE002185F8241029762962072085F8280285F8251007
:20601800364B1970A9600526E960354A2E610420EA610FF007FE287805EB8001401CC1F83A
:20603800AC40C0B22870504650F0D2FB1FB9684610F06EFE6F4638684FF4FA76E6602060EF
:20605800B86941466062388A6175E082F869E062786800280CBF40F6C41000212061214839
:20607800E06120622175A061F86800B1E061786900B12062B86800B1A061C82204F1300067
:2060980000210AF0D5FB04F1480000210FF092FA1549002204F1B00013460DF041FE2046F4
:2060B8000CB0BDE8F087C046CC210840D02A002000200940110000E040240000456801002F
:2060D8002DC70000F52601005D16010085600100E9640100B44F005049310100C23D002003
:2060F80035B80000D3930000257401002DE9F04F754C0646A068D0F80001807AADF15C0D67
:20611800C00009F0A7F800280C9008BF1A2400F0D6804FF0010AF07D8DF848A006F11801CC
:206138008DF849000A680DF14A073A604A687A60097A397211F0C9F91590A068D0F8882480
:206158000DF1460181209047B07D00283DD004208DF803A04FF000088DF80400B78A8DF826
:206178000280A568ADF80070D5F894246946D22090474FF6FF79C34645461DE0C00043F81D
:2061980000B0B18AC0188180DCF80020D42008A9904702E04846ADF804008DF80780B08A54
:2061B8008DF806803B68ADF80000D3F894246946D12090476D1CADB204F108073A6802F5F5
:2061D80080721068C088A84236DCB08A00279DF84920ADF838000DF14A018DF83A700DF147
:2061F8003B0008F0D5F9A068D0F894248DF844A00EA9D0209047071C18D1B08A3146102228
:20621800ADF808000DF10A0008F0C2F93069A7680790D7F8942402A9D3209047071C02D1CD
:206238000C9838B104E00C9820B101E00C9808B10DF016FEFCB23FE0ADF80250B08AADF86E
:206258000000D2F888236946D12090470028A1D1BDF8040081459DD0ADF82000A068D0F81F
:20627800882408A9D420904704F1080718B10C9808B303461CE0386804F108073B6800F234
:20629800944CD3F8000190F80AE00C9B404601E0401CC0B2864507DD03EBC00189888945AF
:2062B80002D0B28A8A42F3D186457FF467AF13B118460DF0D5FD1924159850F089FA2046D0
:2062D80017B0BDE8F08FC0460C0100202DE9F04F704C002704F18C00ADF1140DB946B84613
:2062F800056802978246CDF80C9025B3D4F8A000B84203D1D4F89C00B8421AD0D4F89C6031
:20631800F6B1D4F89C1028690969884218D195F83300400914D30127D4F89C00C068408820
:206338000028F9D0D4F89C00C06840880128F3D006E0012704E004F1D400022111F0DDF85C
:20635800002D43D087F0010B03A802AA594609F0BFFA5FEA000809D0012F07D0039929B113
:2063780004F59E7010F0F9FB4D462FE0002D2DD04948066856B3B8F1000F27D0039828BB09
:20639800CDF800B002980190D4F89C00D4F8A0100AF108035246B047401E02D0401E08D066
:2063B80014E0029800B9284601214B460091014605E001230093D4F89C00D4F89C100069A0
:2063D800B1F930104A4603F069FA60E0002F5ED0002D5CD060682969884252D1B8F1000FE0
:2063F8000BD0039848B1D4F89C0030B9D4F8A00018B908200EF024FA49E0082010F092F869
:2064180095F8330004F1D406C0F3001028B950460FF038FDC4F89C0004E050460FF032FD67
:20643800C4F8A000A8691D49C0430860A8694A6810434860E869C04341F8080CE86951F80D
:20645800042C104341F8040CEC68082029460FF0E9FB20460FF0C2FB2088A0F6020040B137
:2064780041F21E01401A04D041F6E671401A012803D8012021460FF0D5FB4FF080413046CB
:2064980003E004F1D4004FF4806111F036F805B0BDE8F08FD02A0020F82400001010044072
:2064B8002DE9F04F8246ADF11C0D01F08DFD5F4800780AF01BFF5E4C0026012811D90C380B
:2064D8000FD0401E14D0401E012805D810F066F9022803D010F062F921680DE005211F2687
:2064F80008E010F05BF90228F6D101210E4601E003210726204601604E4AD068C0F3815094
:20651800012804D112680120120E9040064310F04DFDDFF828B1DFF82081FF2240185B4605
:20653800401E471CC8F800007F1E03F8012BFBD1DAF80020002702F0FF03FE2B1CD0D446F6
:206558003B46012502F0FF04FF2C0ED0A04205D3A14203D805FA04F4264201D0022062E072
:2065780002F0FF0227430BF802305CF8042F5B1C02F0FF04FE2CE7D1092006F0DBFE30482C
:20659800C0F800A0374801210FF014F8364C00254FF00109A84609FA05F0064214D1074293
:2065B80007BF05F0FF0141F4C0411BF805005AF82010244805F03EF8E8B24FF0FF310FF099
:2065D80035FDC4F8008001E0042020601A4800686D1C241D8542DED904A810F0B7FC1A4CD9
:2065F80020781B4A05901948102104AB0DF078FE684610F0F3FC6068174902901548CDF8C4
:206618000C806A460CF096FA144951F80D0C20F4F85040F4005041F80D0C114AC1F8FF9FF7
:206638004046C2F8009007B0BDE8F08FC33D0020102A0020A84F00500C2A00201840002008
:20665800B4350020007FC767EC240000B040002079640100B03E0020D93A01000D300940C6
:206678002C000940F43B0020583A00202DE9FE4F8946934680460021022268460AF0D8F8FE
:20669800694F78798DF8008028B107F1600010F075FC00207871B7F95E40404607F1600558
:2066B8000026FB280CDCFA2880F2868000286FD00D3800F081800E387ED064384AD007E029
:2066D800FC3870D0401E67D0401E61D0401E32D0B8F1300F70DBB8F13A0F05DBB8F1600F8D
:2066F8006ADDB8F1670F67DA0321601E90FBF1F0241A641EE0B2441040080CD2285D314605
:20671800102200F00F0082462855684603F0C2FB4AEA00100BE0285D3146102220F00F0011
:2067380082462855684603F0B5FB4AEA0000285597F85E0038E03D4890F87A1041B999309B
:206758002946102207F024FF3046294609F022FB01242FE00321601E002C90FBF1F0A4EB6E
:206778000000A0F10100C0B24FEA600224DD94FBF1F04843201A022805D001280CD1A85C23
:2067980040F0F00002E0A85C40F00F00A85403E0284610F0F3FB0FE00121E0B22F220B461C
:2067B8000FF0C0FD05E0E0B201212F220B460FF0C8FD0446A7F85E40102715F8010B01A985
:2067D80002220DF023F8D9F8000010A1098880190180D9F80000731CD9B2401801A90FF04C
:2067F800C5F9F31C7F1EDEB2E7D1B8F1000F0BD0D9F8080006A1152207F0CAFE641CABF8A3
:2068180002400120ABF80000BDE8FE8F2000C046202020202044454641554C54204E574B4D
:20683800204B455900C046C0581C0020C01E00202DE9F04F634D804605F108000068416EFF
:20685800ADF14C0D02A8884763490A68D432106890F883906148DFF860B10778002F00F04A
:206878009E805F48077837F07F0740F09880BBF81600524CB9F1010F00F10100ABF81600FB
:206898000AD000200590E06694F8703060F30303012084F8703019E0C4F8FC8094F800018B
:2068B80020F00F0040F0030084F8000194F80031012060F3C71384F800310027C4F8F870EE
:2068D80094F8013160F3030384F8013149683C4BC96818700F781FB9D2F884230021904722
:2068F800B9F1010F01D10FF041FC10F0EEFDA84604F164071290DFF8D0A0D8F80810F87B3B
:20691800B9F1010F11D00025A4F86650294606F099FB0790D8F80800066D52462946082043
